:100000000C94A9030C94C6030C94C6030C94C60369
:100010000C94C6030C94C6030C94C6030C94C6033C
:100020000C94C6030C94C6030C949C190C942717CB
:100030000C949E290C94C6030C94C6030C94C6031E
:100040000C94C6030C94C6030C94C6030C94C6030C
:100050000C94C6030C9474130C94C6030C94C6033E
:100060000C94C6030C94C6030C94C6030C94C603EC
:100070000C94C6030C94C6030C94C6030C94C603DC
:100080000C94C6030C94C6030C94C6030C94C603CC
:100090000C94C6030C94C6030C94C6030C94C603BC
:1000A0000C94C6030C94C6030C94C6030001010112
:1000B0000101010101010202020202020202020325
:1000C00003030303030303040404040404040505F5
:1000D00005050506060606060707070707080808B8
:1000E00008090909090A0A0A0B0B0B0C0C0C0D0D67
:1000F0000D0E0E0E0F0F0F101011111112121313FF
:100100001414151516161717181819191A1A1B1B77
:100110001C1D1D1E1E1F20202122222324242526D3
:1001200026272829292A2B2C2D2D2E2F303132320B
:10013000333435363738393A3B3C3D3E3F40414217
:10014000434445464748494A4C4D4E4F50515354FD
:10015000555658595A5B5D5E5F61626465666869B1
:100160006B6C6D6F7072737577787A7B7D7E808231
:10017000838587888A8C8E8F91939596989A9C9E7A
:10018000A0A2A3A5A7A9ABADAFB1B3B5B7BABCBE8A
:10019000C0C2C4C6C9CBCDCFD1D4D6D8DBDDDFE257
:1001A000E4E7E9EBEEF0F3F5F8FAFDFFFFAA7F557F
:1001B000402223252628292A2C2D2F30323335366C
:1001C000383A3B3D3E4042434547494A4C4E5051E8
:1001D000535557595A5C5E6062646668696B6D6F0F
:1001E00071737577797B7D7F81838587898A8C8E12
:1001F00090929496989A9C9E9FA1A3A5A7A8AAAC1A
:10020000AEAFB1B3B4B6B8B9BBBCBEBFC1C2C3C553
:10021000C6C7C9CACBCCCDCED0D1D2D2D3D4D5D6F5
:10022000D7D7D8D9D9DADADBDBDBDCDCDCDCDCDD28
:10023000DDDDDDDCDCDCDCDCDBDBDBDADAD9D9D80C
:10024000D7D7D6D5D4D3D2D2D1D0CECDCCCBCAC9A4
:10025000C7C6C5C3C2C1BFBEBCBBB9B8B6B4B3B1D3
:10026000AFAEACAAA8A7A5A3A19F9E9C9A9896946E
:1002700092908E8C8A89878583817F7D7B79777543
:1002800073716F6D6B6968666462605E5C5A595722
:10029000555351504E4C4A4947454342403E3D3BE1
:1002A0003A3836353332302F2D2C2A29282625236B
:1002B000222E004C002A00E100354100001E0014EF
:1002C0000004001D61085D4D001F001A0016001B90
:1002D00000E1042A00200008000700060050002C5E
:1002E0000021001500090019004F004A00220017E4
:1002F000000A000500000065645000015300000082
:100300000F0000E3004F000153000000070000E26F
:100310000023001C000B00110000002961240018BC
:10032000000D00100052004B0025000C000E00369E
:100330000051002800260012000F0037002F002B6C
:1003400000270013003342387130004E002D003179
:10035000003468E50001510000290001000100019E
:1003600000010000003A001E022002220201000EDD
:100370005D3B001F02210223020100C95C3C002FEB
:100380000226022F000100CA5C3D00300227023025
:100390000001000D5D3E003102350035020000C352
:1003A0005C010001000000010000000C5D01000183
:1003B00000000001000000C25C3F00520051002418
:1003C0000200000B5D4000240021001E000100011E
:1003D000004100250022001F003700C55C420026B6
:1003E00000230020002700C65C430025022E0231B6
:1003F000002E000100440045000100010001000042
:1004000000010001000100010001000000010001E5
:1004100000010001000100010001000100F20001E3
:1004200000010001000100F000F1000100F40001F2
:100430000001000100F3000100F5000100010001CE
:1004400000010001000000010001000100000001A6
:100450000000000100010001000000010000000197
:100460000001000100010001000000010001000185
:100470000001000100A9000100010001000100AC21
:1004800000AA00B600010001000100AB00A80001B5
:100490000001000100010001000100010001000154
:1004A00000AE0001000100000000047F3F1F643225
:1004B00014643214783C1E1E140A050A0000000061
:1004C000000306B200080001000000A800080002B6
:1004D000000200A0001400030057494E555342008B
:1004E0000000000000000000008400040007002A53
:1004F0000044006500760069006300650049006EF5
:1005000000740065007200660061006300650047CA
:10051000005500490044007300000050007B003982
:100520000044004200370046003100460044002DE0
:100530000037004500370041002D00340030003006
:100540000038002D0039003300360042002D0036FF
:1005500000420041003600430031003900410033C1
:10056000003000380063007D00000000001B030124
:10057000636F6E6669677572652E6572676F646F0B
:10058000782D657A2E636F6D0005010902A1018542
:10059000020901A100050919012905150025019588
:1005A0000575018102950175038101050109300975
:1005B000311581257F950275088106093815812539
:1005C0007F950175088106050C0A38021581257F83
:1005D000950175088106C0C005010980A101850348
:1005E0001A81002A83001601002603009501751068
:1005F0008100C0050C0901A10185041A01002A9C93
:1006000002160100269C02950175108100C00501AB
:100610000906A1018505050719E029E7150025014F
:100620009508750181020507190029EF15002501BC
:1006300095F07501810205081901290595057501D7
:100640009102950175039101C005010906A10105FB
:100650000719E029E7150025019508750181029524
:1006600001750881010507190029FF150026FF0003
:10067000950675088100050819012905950575017C
:100680009102950175039101C00902520003010016
:10069000A0FA090400000103010100092111010071
:1006A000012240000705810308000A090401000136
:1006B0000300000009211101000122C0000705828A
:1006C0000320000A0904020002FF0000000705835E
:1006D0000340000507050403400005120110020055
:1006E000000008EDFE0713010001020301040330BE
:1006F00000000016034500720067006F0064006F81
:10070000007800200045005A00000008035A0053FA
:10071000004100000004030904050F3900021C1009
:100720000500DF60DDD88945C74C9CD2659D9E647D
:100730008A9F00000306B20045001810050038B675
:100740000834A909A0478BFDA0768815B66500017D
:10075000420111241FBECFEFDAE0DEBFCDBF11E0B2
:10076000A0E0B1E0EEE0F9E502C005900D92AA3FED
:10077000B107D9F723E0AAEFB1E001C01D92A53877
:10078000B207E1F70E94AE250C94462C0C940000B1
:10079000E8EDF0E080818E7F80831092E20010927D
:1007A000DA001092E100A0EEB0E08C9181608C93B1
:1007B00080818F77808319BCA7EDB0E08C918E7F0C
:1007C0008C9380818F7E808310924B0308952091BB
:1007D000E4003091E50095E6A9012091EC00822F1C
:1007E000817020FF06C08091E80080FF06C080E095
:1007F00008952091E80022FD1AC080917703882394
:1008000089F0853089F08091EB0085FD0FC0209143
:10081000E4003091E50042175307F9F29150E1F6F8
:1008200084E0089582E0089583E0089581E00895CA
:10083000EF92FF920F931F93CF937C018B010E9445
:10084000E703C82F882371F08C2FCF911F910F9150
:10085000FF90EF900895F70181917F018093F1005F
:10086000015011090115110579F38091E80085FD0A
:10087000F2CF8091E8008E778093E8000E94E70332
:10088000882381F3C82FE0CF8091790387FF13C0BD
:100890008091E80082FF06C08091E8008B7780930A
:1008A000E80004C0809177038111F2CF0895809110
:1008B00077038823D9F38091E80080FFF8CF8091F7
:1008C000E8008E77ECCF982F9093E900242F762FB5
:1008D00050E0891731F07091EC002091ED005091BB
:1008E000F00021FD07C09F5F973071F78093E9000A
:1008F00081E008953091EB003E7F3093EB00309122
:10090000ED003D7F3093ED003091EB00316030938E
:10091000EB007093EC002093ED005093F0002091D9
:10092000EE0027FDE0CF80E00895CF92DF92EF92B6
:10093000FF920F931F93CF93DF93C8EDD0E0888190
:100940008F7E8883E7EDF0E080818160808384E0A2
:1009500082BF81E080934B0388818E7F888302EE83
:1009600010E0F80110821092DA0081EEC82ED12C2E
:10097000F601108288818F778883888180688883D8
:1009800088818F7D888319BC109277031092780339
:10099000109276031092750390EEE92EF12CF70178
:1009A00080818B7F808388818160888342E060E0E2
:1009B00080E00E946304F60180818E7F8083F801CD
:1009C000808181608083808188608083F70180815D
:1009D0008E7F8083888180618883DF91CF911F9192
:1009E0000F91FF90EF90DF90CF900895FC018091E0
:1009F0007F039091800386179707A0F0611571051A
:100A000029F48091E8008E778093E80090E06115EA
:100A1000710551F4911108C08091E80082FF35C042
:100A200080E00895BC01F2CF809177038823C9F15B
:100A30008530C9F18091E80083FD31C08091E800E4
:100A400082FDEACF8091E80080FFE1CF8091F30042
:100A50002091F200382F6115710519F02830310509
:100A600058F091E02830310509F090E08091E800DD
:100A70008E778093E800CBCF84918093F1003196FC
:100A8000615071092F5F3F4FE6CF80917703882334
:100A900041F0853041F08091E80083FFBDCF81E0D7
:100AA000089582E0089583E00895FC0180917F031A
:100AB0009091800386179707A0F06115710529F4BE
:100AC0009091E8009E779093E80090E061157105A1
:100AD00051F4911108C08091E80082FF34C080E099
:100AE0000895BC01F2CF809177038823C1F185304E
:100AF000C1F18091E80083FD30C08091E80082FD63
:100B0000EACF8091E80080FFE1CF8091F30020914F
:100B1000F200382F6115710519F02830310558F0B1
:100B200091E02830310509F090E02091E8002E771F
:100B30002093E800CBCF81918093F100615071093F
:100B40002F5F3F4FE7CF80917703882341F08530B7
:100B500041F08091E80083FFBECF81E0089582E0FC
:100B6000089583E0089580917703843011F482E042
:100B7000089581E008950895809154030895209187
:100B80007703243099F423E02093E90070E050E0EB
:100B900040E00E941804882321F01092490310922B
:100BA0004A038091E8008E778093E8000895909141
:100BB0002603803F41F48091270387FD109227038D
:100BC000992371F00895813F29F480912703181625
:100BD000ACF3F6CF823F81F497FFF2CF1092260359
:100BE0008091270390912803892B90912903892BC9
:100BF00049F710922A030895833F19F4191674F3E4
:100C0000DFCF893F39F4809128031816CCF6109273
:100C10002803D6CF8A3F29F48091280387FFD0CFBD
:100C2000F6CF8B3F39F48091290387FFC9CF10920B
:100C30002903C6CF8C3F29F4809129031816BCF3F1
:100C4000BFCF843F31F4809125038E7F80932503AD
:100C5000B7CF853F21F4809125038D7FF7CF863F65
:100C600021F4809125038B7FF1CF873F21F4809180
:100C70002503877FEBCF883F21F4809125038F7E6A
:100C8000E5CF8D3F31F48091F7028E7F8093F7029C
:100C900097CF8E3F21F48091F7028D7FF7CF8F3F62
:100CA00009F08ECF8091F7028B7FF0CF8091F70211
:100CB00080FD16C081FD16C082FD16C080912A03FA
:100CC0008823A1F0883280F428E0829FC00111249B
:100CD00068E270E00E94A02A862F672B39F0089501
:100CE00082E0089584E0089588E0089581E0089501
:100CF0008091F70280FD16C081FD16C082FD18C0EC
:100D000080912A03882391F08C3390F423E2829F10
:100D1000C00111246CE370E00E94A02A862F672B8B
:100D200049F0089588E0089581E1089585E00895E7
:100D300083E2089581E00895803F31F40E947806AF
:100D40008195809327030895813F19F40E947806C6
:100D5000F8CF823F31F40E94780681958093260374
:100D60000895833F19F40E947806F8CF893F29F44B
:100D70000E9456068093280308958A3F21F40E941A
:100D800056068195F7CF8B3F31F40E945606819528
:100D90008093290308958C3F19F40E945606F8CFDA
:100DA000843F31F480912503816080932503089569
:100DB000853F21F4809125038260F7CF863F21F49F
:100DC000809125038460F1CF873F21F48091250332
:100DD0008860EBCF883F21F4809125038061E5CFC7
:100DE0008D3F31F48091F70281608093F70208957E
:100DF0008E3F21F48091F7028260F7CF8F3FB9F7E1
:100E00008091F7028460F1CFCF92DF92EF92FF9250
:100E10000F931F932FB7F8944091F3025091F4026F
:100E20006091F5027091F6022FBF6A017B01EE24FA
:100E3000FF248C0130E020E0C016D106E206F30664
:100E400050F0481B590BCA011F910F91FF90EF9072
:100E5000DF90CF90089541505109F3CFCF92DF92A8
:100E6000EF92FF926C01EE24FF2420E0C114D10424
:100E7000E104F10419F0C701B60120E1C72ED82E14
:100E8000E92EFF24C114D104E104F10419F0285F14
:100E9000C701B6016B017C0154E0F694E794D79446
:100EA000C7945A95D1F7C114D104E104F10419F0A3
:100EB0002C5FC701B6016B017C0142E0F694E79418
:100EC000D794C7944A95D1F7C114D104E104F10431
:100ED00019F02E5FC701B6019695879577956795AE
:100EE000672B682B692B09F02F5F822FFF90EF9003
:100EF000DF90CF9008958091EE0281111092EE0262
:100F000008958091ED029091EC02892B9091EB0273
:100F1000892B8093FA019091EE029923A1F0892BFD
:100F20008093FA0180911F01882341F18091100381
:100F300087FF24C08EE1ECEFF1E090E0815000F5F6
:100F400091110E947B07E0911303F09114033097F5
:100F5000E1F080911F01882359F08091100387FFF1
:100F600007C08091FA018093FB0185E08093FA012C
:100F70000280F381E02D8AEF91E0099486E0DBCFD7
:100F800021912223D9F29F5FD9CF089590911F011B
:100F90009923D1F09091100397FF16C0E82FE695A2
:100FA000E695E695EE31E0F4F0E0E650FE4F282FAE
:100FB000277081E090E001C0880F2A95EAF78095BC
:100FC0009281892382830895ECEFF1E09191891356
:100FD00003C0DF0111971C9292E0E230F907B1F7EC
:100FE000089590911F019923C1F09091100397FFEC
:100FF00014C0E82FE695E695E695EE31F8F4F0E0BA
:10100000E650FE4F877021E030E001C0220F8A9544
:10101000EAF78281822B82830895ACEFB1E0EFEF93
:1010200090E02D91821751F0EF3F19F4211101C08A
:10103000E92F9F5F9630A9F7EF3F09F408950E2E30
:10104000000CFF0BE650FE4FE6CFE92FEE0FE90F45
:10105000EE0F8E0F982F977086958695869525E0D2
:10106000829FF0011124ED54FD4F50E040E080E0FC
:10107000219130E0092E02C0369527950A94E2F7B7
:1010800021703327042E01C0220F0A94EAF7822B25
:101090004F5F5F4F4530510559F70895E92FEE0F27
:1010A000E90FEE0F8E0F982F977041E001C0440FAB
:1010B0009A95EAF786958695869595E0899FF00141
:1010C0001124ED54FD4F30E020E070E05191DF013C
:1010D0001197CB01022E02C0969587950A94E2F7EC
:1010E000817081958527842385278C932F5F3F4FBF
:1010F0002530310559F708958091B202909181020F
:10110000981301C008958F5F8770FACF882341F04C
:1011100080959091EC0289238093EC020C948107D6
:101120000895882339F09091EC02982B9093EC026B
:101130000C9481070895882341F080959091ED02E9
:1011400089238093ED020C9481070895882339F058
:101150009091ED02982B9093ED020C9481070895E5
:1011600020916402309165022817390771F090933D
:10117000650280936402E0911303F09114033097A9
:1011800021F00084F185E02D0994089520916202F8
:10119000309163022817390771F0909363028093AE
:1011A0006202E0911303F0911403309721F006805E
:1011B000F781E02D09940895E0911303F091140351
:1011C000309721F00190F081E02D099480E008959E
:1011D000FA01811101C0FB01099480914C03982F01
:1011E0009E7F29F48170826080934C0308958A3435
:1011F000E8F381708864F8CFAF92BF92DF92EF92EC
:10120000FF920F931F93CF93DF93082F162FE901BF
:10121000E42FF0E0E455FF4F611111C0E4915E2F1F
:101220004E2F4983E8835A831B82DF91CF911F9110
:101230000F91FF90EF90DF90BF90AF900895E62E52
:10124000F12C4491D42EE42FF0E026E0829FC001DF
:1012500011242FEF30E0B9010E948C2A802F90E0FA
:10126000880F991F55E5569FD001579FB00D112447
:101270008A1B9B0B982F990F890F5901AE18BF0835
:10128000AE9ED001AF9EB00DBE9EB00D11245B2F5F
:10129000189F80011124012F11275901A01AB10AAA
:1012A000AE9E8001AF9E100DBE9E100D11245901FF
:1012B000A81AB108AE9CC001AF9C900DBE9C900DC9
:1012C0001124892F9927281B390B2E9FC0012F9F8E
:1012D000900D3E9F900D1124E92F62307105A1F011
:1012E00050F46115710509F49CCF6130710581F0EE
:1012F000EB2F512F96CF6430710569F080F0663086
:10130000710509F48ECFF4CFE42F4B2F592F89CFDD
:10131000E42F412F86CFEB2F542F492F82CF4B2F15
:101320005D2DE12F7ECF9091100392FF06C0282FF4
:1013300028712830F9F4877F846093FF06C0282F36
:1013400028712831F1F4877E84612091110320FFF8
:1013500006C0382F38713830D9F4877F816021FF7B
:1013600006C0282F28712831D1F4877E816194FD31
:10137000877E0895282F24712430F9F68B7F8860AA
:10138000DCCF282F2471243101F78B7E8861DDCFDB
:10139000382F3171313019F78E7F8860E0CF282FD8
:1013A0002171213121F78E7E8861E1CFCF93DF93C8
:1013B000972F70E026E0929F600D711D1124FB01B4
:1013C00034E5839FE00DF11D1124EE0FFF1FEF5454
:1013D000FD4FC591D491CE01C238D105B9F1E8F5E0
:1013E000C133D10509F499C050F5C932D10509F4CA
:1013F0008DC0CA32D10509F497C0C11542E5D407A2
:1014000008F047C1C11521E5D20708F0C2C1C83EA6
:10141000D10508F020C1C03ED10568F5C83AD10514
:1014200008F089C0C53AD10508F088C1C130D1059E
:1014300011F1209709F443C02497E8F440C0C53364
:10144000D10509F45CC0C933D105B9F62091100368
:10145000237089F080EE90E00EC0C33ED10591F17B
:1014600068F4C03ED105F9F0C23ED10531F62091B5
:10147000100322FD20C0DF91CF910895C63ED10513
:1014800061F1C73ED10581F1C43ED10509F0B5CF68
:101490002091110321FFEFCF8091100384FD0FC035
:1014A00087EE90E0E8CF2091100320FDA3C130919A
:1014B000110330FFE0CF83EE90E024FFDCCF90E01B
:1014C00080E0D9CF2091100322FD97C13091110304
:1014D00030FDC0CF24FFCFCFF2CF2091100323FFE8
:1014E000CACF24FDECCFDCCF2091100323FD88C1AF
:1014F0003091110331FFEECF84EE90E0BCCF20910C
:10150000100325FFB8CF89E290E0B5CF20911003FA
:1015100025FFB1CF85E390E0AECF2091100326FFE9
:10152000AACF8AE290E0A7CF2091100326FFA3CF95
:1015300081E390E0A0CFCF3BD10508F682EE94E4A2
:10154000C83AD10509F497CF89EE94E4C93AD10598
:1015500009F491CF8AEE94E4CA3AD10509F48BCF0D
:1015600085EB94E4CB3AD10509F485CF86EB94E47E
:10157000CC3AD10509F47FCF83EB94E4CB3BD10582
:1015800009F479CF84EB94E4CC3BD10509F473CF13
:1015900087EB94E4CD3AD10509F46DCF8CEC94E45B
:1015A000C03BD10509F467CF8DEC94E4CE3AD10568
:1015B00009F461CF83E895E4CF3AD10509F45BCF14
:1015C0008AE895E4C13BD10509F455CF82E995E459
:1015D000C23BD10509F44FCF84E995E4C33BD10563
:1015E00009F449CF81E296E4C43BD10509F443CF25
:1015F00083E296E4C53BD10509F43DCF84E296E44D
:10160000C63BD10509F437CF85E296E4C73BD10547
:1016100009F431CF86E296E4C83BD10509F42BCF1B
:1016200087E296E4C93BD10509F425CF8FE694E41F
:10163000CD3BD10509F41FCF80E794E4CE3BD10523
:1016400009F419CF80E094E4CA3BD10509F013CF27
:101650008AE296E410CFC11530E2D30760F4C115D9
:1016600041E0D40708F007CFCE019065C03FD10517
:1016700008F001CF24CFC11580E4D80708F41FCFAC
:10168000C11590E5D90708F068C0CE019F70906A37
:10169000F2CEC11526E5D20718F5C11535E5D307F9
:1016A00008F08DC0C11544E5D40708F083C09C2F15
:1016B00096959695AE0143705527C115D34508F40C
:1016C0006DC021E030E002C0220F331F4A95E2F7DF
:1016D00040E2949FC0011124822B932B9A68CBCEB9
:1016E000C1159AE5D90778F4C11529E5D20708F0A4
:1016F00070C0C11538E5D30708F4E1CE9C2F8827C8
:10170000806F906AB8CEC1154BE5D40708F4D7CEE8
:10171000C1158CE5D80708F469C0CE019056811533
:10172000904208F0CCCE8D2F8F710E94930990E0EB
:10173000982F882788279F718C2B49C081E890E4D7
:10174000C53AD10509F497CE82E890E4C63AD105AE
:1017500009F491CE83E890E48ECE9E01E4E03695C4
:101760002795EA95E1F723708C2F869586958370EF
:1017700030E2839FC0011124922BC37021E030E03E
:1017800002C0220F331FCA95E2F7822B932B9C686D
:1017900072CE9C2F8827816F906A6DCE21E030E059
:1017A00002C0220F331F4A95E2F740E2949FC00126
:1017B0001124EBCF9C2F8827846F906A5CCE8C2FEE
:1017C0000E94930990E0982F882788279F71906244
:1017D00052CE8C2F8F700E94930934E0D695C79516
:1017E0003A95E1F7CF709C2F906945CECE019927AD
:1017F000906641CE89E390E03ECE82EE90E03BCE13
:1018000086EE90E038CEBF92CF92DF92EF92FF92B9
:101810000F931F93CF93DF938C01C0904503D0901B
:101820004603E0904703F09048038091EF029091C7
:10183000F002A091F102B091F202C82AD92AEA2A54
:10184000FB2ACFE1D0E0BC2ED701C6010C2E04C08C
:10185000B695A795979587950A94D2F780FD0EC007
:10186000219788F7B12C8B2DDF91CF911F910F918C
:10187000FF90EF90DF90CF90BF900895B8018C2F2C
:101880000E94D609019761F3EECFCF93DF93EC016D
:101890000E94030CBE01DF91CF910C94D6090E94E7
:1018A000450C292F2F7092959F7092509E3078F49E
:1018B000E92FF0E0E85BF34D0C94B42A803F19F077
:1018C00020F4883E20F481E00895843FE1F380E035
:1018D0000895883EC0F3813FD1F7F5CF822F8695DA
:1018E00086958695089527982F98089526982E987E
:1018F000089525982D98089556985E980895279AEA
:101900002F9A0895269A2E9A0895259A2D9A089529
:10191000CF92DF92EF92FF92CF936B017C010E94F6
:101920002E07C82F0E947C0C0E94790C0E94760C16
:101930000E94730CC150C73040F4EC2FF0E0EA5A1B
:10194000F34D0C94B42A0E94850CC701B601CF91C7
:10195000FF90EF90DF90CF9008950E94850C0E9439
:10196000820CF3CF0E94850C0E947F0CEECF0E9468
:10197000850C0E94820CF8CFCF92DF92EF92FF92FB
:10198000CF93DF9300D000D0CDB7DEB70E94880C94
:101990006B017C0180914903882379F0198283E0EF
:1019A0008A83C701B6010E942E078B838EEF8C833A
:1019B00064E0CE0101960E94BF05C701B6010F90F9
:1019C0000F900F900F90DF91CF91FF90EF90DF90ED
:1019D000CF90089584B1807F84B985B1807F85B927
:1019E0008AB1837F8AB98BB1837F8BB93E98469841
:1019F000089580B38C7080BB81B3836F81BB0895E1
:101A00000F931F93CF93DF9300D00F92CDB7DEB724
:101A10008C010E94B305823011F0843021F584E0FE
:101A200089831B830A8382E08093E9008FEF909182
:101A3000E800815095FD06C095ED9A95F1F70000FC
:101A40008111F5CF8091E80085FF0DC050E040E0A6
:101A500063E070E0CE0101960E9418048091E800D6
:101A60008E778093E8000F900F900F90DF91CF91C9
:101A70001F910F910895CF93DF9300D00F92CDB7B0
:101A8000DEB720917703243031F523E02983805895
:101A900091099B838A8382E08093E9008FEF909184
:101AA000E800815095FD06C095ED9A95F1F700008C
:101AB0008111F5CF8091E80085FF0DC050E040E036
:101AC00063E070E0CE0101960E9418048091E80066
:101AD0008E778093E8000F900F900F90DF91CF9159
:101AE0000895CF93DF93EC010E94B305823011F08B
:101AF0008430F9F482E08093E9008FEF9091E80060
:101B0000815095FD06C095ED9A95F1F70000811181
:101B1000F5CF8091E80085FF0CC050E040E066E022
:101B200070E0CE010E9418048091E8008E778093C7
:101B3000E800DF91CF910895CF93DF93EC010E94ED
:101B4000B305823011F08430B9F580911F018823EC
:101B5000B1F18091100387FF32C060E282E0809390
:101B6000E9008FEF9091E800815095FD06C095ED5A
:101B70009A95F1F700008111F5CF8091E80085FF7B
:101B80001BC080911F0170E050E040E0811104C053
:101B900050E040E068E070E0CE010E9418048091BF
:101BA000E8008E778093E80080E2FE01A5E5B3E0CF
:101BB00001900D928A95E1F7DF91CF91089568E049
:101BC00081E0CDCFEF92FF920F931F93CF93DF93DE
:101BD0000E947C0C0E94790C0E94760C0E94730C6F
:101BE00088E8E82EF12C8FEF90E0F7019183808355
:101BF0000AE810E0F80191838083CCE8D0E0998373
:101C000088830E94850CFFEF20E782E0F15020409E
:101C10008040E1F700C000000E94820C9FEFE0E7E7
:101C2000F2E09150E040F040E1F700C000000E9477
:101C30007F0C2FEF80E792E0215080409040E1F749
:101C400000C000000E94790CEFEFF0E722E0E150C5
:101C5000F0402040E1F700C000000E94760C8FEFBA
:101C600090E7E2E081509040E040E1F700C00000E2
:101C70000E94730C8091FE028770FFEF8F9FC0015E
:101C8000112495958795959587959927F7019183C7
:101C90008083F80191838083998388830E947C0CE0
:101CA0000E94790C0E94760CDF91CF911F910F91C9
:101CB000FF90EF900C94730CCF9384E090E00E941F
:101CC000C62AC82F81E290E00E94C62A982F8C2F46
:101CD000CF9108956091FA028CE090E00C94DA2A9A
:101CE000CF92DF92EF92FF926B017C010E94ED0890
:101CF000B701A60188E090E0FF90EF90DF90CF90D1
:101D00000C94EC2A80915003833018F48F5F8093F9
:101D1000500360914C0370914D0380914E0390915C
:101D20004F030C94700E80915003882319F081505A
:101D30008093500360914C0370914D0380914E034A
:101D400090914F030C94700EECE4F3E083E08083F9
:101D500011828FEF828383831482608171818281FB
:101D600093810C94700E6FEE7EEF90E080E00E9405
:101D7000F82A60E082E090E00E94DA2A60E083E0E6
:101D800090E00E94DA2A1092EF021092F002109274
:101D9000F1021092F20260E084E090E00E94DA2A00
:101DA00060E081E290E00E94DA2A60E085E090E065
:101DB0000E94DA2A60E086E090E00E94DA2A6FEF63
:101DC00087E090E00E94DA2A40E050E0BA0188E023
:101DD00090E00E94EC2A60E08DE090E00E94DA2A18
:101DE00040E050E0BA0188E190E00E94EC2A60E017
:101DF00087E190E00E94DA2A40E050E0BA018CE1ED
:101E000090E00E94EC2A60E080E290E00E94DA2AF2
:101E10001092FE021092FF02109200031092010332
:101E200084E080618093FE024091FE025091FF02A7
:101E300060910003709101038FE090E00E94EC2A12
:101E400040E050E0BA0183E190E00C94EC2ACF939B
:101E5000C82F873070F58091130190911401892B60
:101E600089F564E670E080E40E94CB299093140128
:101E700080931301892BD1F464E670E082E10E9423
:101E8000272A9093140180931301892B79F481E020
:101E900090E001C0880FCA95EAF764E670E080958B
:101EA0000E94272A9093140180931301CF910C94E0
:101EB0007A2A8A30B9F040F4883071F0893079F0AC
:101EC000209A2898CF9108958C3091F070F08D3041
:101ED000B9F73E9A4698F6CF219A2998F3CF229ADD
:101EE0002A98F0CF239A2B98EDCF529A5A98EACF9E
:101EF000539A5B98E7CF80E290E09093140180932F
:101F000013018091200281110EC00E94C52981E039
:101F1000809320022FEF83ED90E32150804090408A
:101F2000E1F700C0000064E670E080E40E94CB2985
:101F30009093140180931301892B09F04EC064E63D
:101F400070E080E00E94272A90931401809313018F
:101F5000892B09F042C064E670E080E00E94272AE5
:101F60009093140180931301892BB9F564E670E016
:101F70008FE30E94272A9093140180931301892BE9
:101F800061F50E947A2A64E670E080E40E94CB2921
:101F90009093140180931301892BF9F464E670E0A7
:101FA0008CE00E94272A9093140180931301892BBF
:101FB000A1F464E670E080E00E94272A9093140167
:101FC00080931301892B49F464E670E08FE30E944B
:101FD000272A90931401809313010E947A2A8091FA
:101FE00013010895CF93DF9380914C0380FD0BC0C4
:101FF000E4E2F2E01182108212821382349652E0FF
:10200000E036F507B9F7C4E2D2E0FE019281208103
:102010003181892F291708F4822F381708F4832F6C
:102020008383381B3183281B2083981B928334962B
:1020300082E0E036F80751F70E94C52964E670E0B7
:1020400084E80E94CB2964E670E088810E94272AF8
:1020500064E670E089810E94272A64E670E08A8144
:102060000E94272A64E670E08B810E94272A24962A
:1020700092E0C036D90739F70E947A2A579A3BB1C5
:102080003F772BB120684FB7F89484E292E0FC01CF
:102090005191CF0168E02BB9000000C057FF3BB958
:1020A000550F000000C000C000C03BB900C06A95D9
:1020B00091F7F2E080369F0751F74FBF8FE391E031
:1020C0000197F1F700C00000DF91CF910895EF92E2
:1020D000FF920F931F93CF93DF938C01C4E2D2E062
:1020E000F12CE12CF801948160914E0380914D0315
:1020F000F7E0EF16F104FCF49923F9F09E0140910A
:102100004F030E94FC082FEFE21AF20A24968FE098
:10211000E816F10439F70E94F20FF801848190E08B
:102120000196817099278483DF91CF911F910F9140
:10213000FF90EF900895992309F39E0140E0E1CFCD
:10214000EF92FF921F93CF93DF93EC0184E2E82E8E
:1021500082E0F82E10E08C81970140914F0360914E
:102160004E03810F0E94FC081F5E84E0E80EF11C04
:102170001F3F89F70E94F20F9A818C8190FF08C05F
:102180008F5F8C83DF91CF911F91FF90EF90089527
:102190008150F7CFBF92CF92DF92EF92FF920F93D1
:1021A0001F93CF93DF93FC018281DD24DA9480FDBD
:1021B00002C0DD24D39404E212E0D0E0C0E02FE0BE
:1021C000B22EF801118210821282138294E0E92E5D
:1021D000F12CC12C809121028C0D80310CF43DC07A
:1021E0006B2D0E947E2A892F082E000C990B8C17CC
:1021F0009D0791F480914F038E9DA0018F9D500DFE
:1022000011245595479555954795980160914E0332
:1022100080914D030E94FC08CD0CF1E0EF1AF1080B
:10222000C9F621960C5F1F4FCF30D10551F60E94A1
:10223000F20F8091210291E0D91215C0811111C0D5
:102240008EE080932102DF91CF911F910F91FF903B
:10225000EF90DF90CF90BF90089587FFC5CF815F4B
:10226000C3CF8150EECF90E00196BE010E94A02A1C
:10227000E8CF0F931F93CF93DF93C4E2D2E0FE0128
:102280001182108212821382349682E0E036F807BF
:10229000B9F710E000E080912202082E000C990BA3
:1022A000081719078CF180911201082E000C990B68
:1022B000801791074CF19E0140914F0360914E03AE
:1022C00080914D030E94FC080F5F1F4F24960F3032
:1022D000110509F70E94F20F8091110190912202DD
:1022E000980F9093220220911201280F209312013F
:1022F000121614F49E301CF0819580931101DF9129
:10230000CF911F910F910895198218821A821B8212
:10231000DBCFEF92FF920F931F93CF93DF93EC01EC
:102320008C819D810196817099279D838C8384E2A5
:10233000E82E82E0F82E10E005E5812F86952C81AD
:102340003D81820F932F911D8170970140914F0322
:1023500060914E03809F802D11240E94FC081F5F16
:1023600084E0E80EF11C1F3041F7DF91CF911F91FF
:102370000F91FF90EF900C94F20F90914C0390FF0F
:102380000DC0E4E2F2E081836083428313823496DD
:1023900092E0E036F907B9F70C94F20F08950F9325
:1023A0001F93CF93DF9300D000D0CDB7DEB78C0161
:1023B0008091230281110AC09E012F5F3F4F4FEF92
:1023C0006FEF0E94FC088A8180932302F8016481E8
:1023D000613069F08091230240E0662361F040E0C3
:1023E000623011F44091230280E060E004C060910B
:1023F000230240E080E00E94BD11F801848190E05A
:10240000019663E070E00E94A02A84830F900F90F1
:102410000F900F90DF91CF911F910F910895CF935F
:10242000DF9300D000D0CDB7DEB790914C0390FF82
:102430000AC09E012F5F3F4F0E94FC084B816981BB
:102440008A810E94BD110F900F900F900F90DF9125
:10245000CF910895CF93DF93EC01EC81F0E0EF543E
:10246000FE4F4491ECE4F3E0628181810E940F12FF
:102470008C818F5F8C83DF91CF910895CF93DF9311
:10248000EC01ECE4F3E0438162818C810E940F1245
:102490008C818F5F8C83DF91CF9108955F926F92D3
:1024A0007F928F929F92AF92BF92CF92DF92EF92E4
:1024B000FF920F931F93CF93DF9300D000D0CDB73F
:1024C000DEB7182F762E042F622E90914C0390FFCA
:1024D00029C0E92FE695AE2FB0E0A45DBE4F8C91E8
:1024E000809343039E7F923089F59E012F5F3F4F7B
:1024F000812F0E94FC084B8169818A810E94BD1155
:1025000010934D0370924E0300934F03662051F0D9
:1025100060914C0370914D0380914E0390914F0355
:102520000E94700E0F900F900F900F90DF91CF913F
:102530001F910F91FF90EF90DF90CF90BF90AF90E1
:102540009F908F907F906F905F900895823019F4E4
:1025500000914F03D5CF863019F410914D03D0CFA1
:102560008930D9F3893161F6E9518E2F8170582E67
:10257000E695F0E0E455FE4FA590B490BB2484E2CC
:10258000E82E82E0F82ED12CC12C9FE0892E912CD0
:10259000C601B4010E948C2A812F511013C0860FEE
:1025A0009701402F672D0E94FC08CA0CDB1C84E0B9
:1025B000E80EF11C80E6E81682E0F80649F70E9472
:1025C000F20F9ECF861BECCFECE4F3E043812CE0CE
:1025D000421B08F440E021E0628181810C944E129C
:1025E000ECE4F3E043812CE0420F08F44FEF21E0EC
:1025F000628181810C944E12ECE4F3E062812FEF52
:10260000621B08F460E021E0438181810C944E124A
:10261000ECE4F3E062812FEF620F08F46FEF21E04A
:10262000438181810C944E12ECE4F3E0818121E03E
:10263000438162818C500C944E12ECE4F3E0818172
:1026400021E043816281845F0C944E12CF938730E6
:1026500008F040C08091130190911401C0E0892BD3
:1026600071F464E670E080E40E94CB299093140139
:1026700080931301892B31F0C0E00E947A2A8C2FBD
:10268000CF91089564E670E083E10E94272A909339
:10269000140180931301892B79F764E670E081E4DB
:1026A0000E94CB299093140180931301892B21F769
:1026B00084E690E00E94562A97FF05C0909314018B
:1026C00080931301D9CFC82FC09510921401109296
:1026D0001301D3CFCFB18FB1869586958C73C3701C
:1026E0008C2BC82FC095CBCF78941F921FB61F920A
:1026F00011248F939F93AF93BF938091F302909196
:10270000F402A091F502B091F6020196A11DB11D4F
:102710008093F3029093F402A093F502B093F60233
:10272000BF91AF919F918F911F901FBE1F901895E1
:102730002FB7F8948091F3029091F402A091F502E2
:10274000B091F6022FBF0895E0911303F0911403A6
:10275000309749F082E0809324030480F581E02DD6
:1027600084E293E009950E94981390932C03809340
:102770002B0308951092EC021092EB020E94810745
:1027800086E0E4E2F3E0DF011D928A95E9F710921A
:102790002A031092F7020E94A41390E080E00E94A6
:1027A000C60890E080E00C94B0080E94BC0C6093D6
:1027B00045037093460380934703909348030C941A
:1027C000BA130F931F9341E050E060E070E004C043
:1027D000440F551F661F771F8A95D2F7CB01BA01A8
:1027E00060957095809590950091450310914603F2
:1027F0002091470330914803602371238223932360
:102800001F910F910C94D5139091EA028095892322
:102810008093EA02282F277071F4282F082E000CCD
:10282000330B9217130639F08595859585950E948F
:10283000E1131092EA0208950F931F9341E050E0D4
:1028400060E070E004C0440F551F661F771F8A9533
:10285000D2F78091450390914603A0914703B09130
:1028600048038A019B01082B192B2A2B3B2BC901FA
:10287000B8011F910F910C94D5136093EF027093E0
:10288000F0028093F1029093F2020C94BA1310922A
:10289000ED0280911F01ECEFF1E0882359F0809167
:1028A000100387FF07C08EE1DF011D928A95E9F7CB
:1028B0000C94BA1386E0F8CF1F93CF93DF93CDB774
:1028C000DEB7AA970FB6F894DEBF0FBECDBF89E77B
:1028D00093E02091F100FC012193CF01F3E08138D6
:1028E0009F07B9F780917A03893009F444C018F53D
:1028F000823009F4B7C0833009F46CC0813031F5FF
:1029000080917903813A11F58091E800877F809367
:10291000E80080917D0390917E03892B41F560E270
:1029200085E593E070E00E9455058091E8008B7783
:102930008093E8000BC08B3009F469C008F481C0B3
:10294000823409F4A0C0853409F4BAC08091E8004B
:1029500083FF65C28091790390917A039A3008F0E1
:102960005EC2E92FF0E0E35AF34D0C94B42A60E024
:1029700090E080E0D7CF80917903813239F7809160
:102980007D0390917E03029708F78091E800877F8E
:102990008093E8008091E80082FF17C09091F300D7
:1029A0008091F200029729F48091F1008B7F8130B1
:1029B00021F48091F100809354038091E8008B779B
:1029C0008093E8000E944404C1CF80917703811175
:1029D000E1CFBCCF80917903813A09F0B7CF8091E4
:1029E0007D0390917E03892B09F0B0CF8091E800A0
:1029F000877F8093E8008091E80080FFFCCF809182
:102A00001F018093F1008091E8008E77D9CF8091EB
:102A10007903813209F09ACF80917D0390917E03F2
:102A2000892B09F093CF8091E800877F8093E8009D
:102A30000E94440480917B0380931F010E944714ED
:102A400085CF80917903813209F080CF8091E800B1
:102A5000877F8093E8000E94440480917C038093E8
:102A6000530374CF80917903813A09F06FCF80913D
:102A7000E800877F8093E8008091E80080FFFCCF2A
:102A800080915303BECF80917903803C09F05ECFE3
:102A900080917D0390917E03029739F580917B03AD
:102AA00090917C03019709F58091E800877F8093DE
:102AB000E8006BE170E08DE695E00E94F60482CFBD
:102AC00080917903803C09F041CF80917D03909102
:102AD0007E03079751F48091E800877F8093E80098
:102AE00062EB70E08BEB94E0E8CF8091EB008062CA
:102AF0008093EB002BCF803899F0823809F08FC19A
:102B000080917D038F70873008F089C18093E90040
:102B10008091EB0085FB882780F91092E90006C0C0
:102B20008091750390917603911182609091E800F5
:102B3000977F9093E8008093F1001092F1008091CC
:102B4000E8008E7768C1882309F456C1823009F005
:102B500066C180917B03811159C180917D038F7083
:102B60002FEF280F263008F05AC18093E9002091FA
:102B7000EB0020FF4BC1933031F48091EB00806279
:102B80008093EB0043C19091EB0090619093EB0038
:102B900021E030E001C0220F8A95EAF72093EA0095
:102BA0001092EA008091EB008860EACF811137C172
:102BB00010917B031F778091E3008078812B8093B5
:102BC000E3008091E800877F8093E8000E9444043E
:102BD0008091E80080FFFCCF8091E30080688093C3
:102BE000E30082E0111183E08093770318C18058DD
:102BF000823008F014C180917B0390917C038C3D5E
:102C000023E09207A1F583E08A838AE289834FB7A4
:102C1000F894DE01139620E03EE051E2E32FF0E06D
:102C200050935700E49120FF03C0E295EF703F5F9F
:102C3000EF708E2F90E0EA30C0F0C7968D939D9391
:102C40002F5F243159F74FBF8091E800877F809331
:102C5000E8006AE270E0CE0101960E94550580917D
:102C6000E8008B778093E800DAC0C096E7CF409108
:102C70007D0350917E03292F33272330310569F1DD
:102C8000A0F42130310509F46CC062E570E089E8F8
:102C900096E02230310509F0C2C02091E800277F7C
:102CA0002093E8000E94F604DACF2132310509F4BE
:102CB00040C02232310509F448C02F30310509F0F7
:102CC000AEC0EBE1F7E0E4916E2F70E089E197E0B0
:102CD0006115710509F4A3C0E0CF992781309105F2
:102CE000C1F0009771F082309105D9F0039709F097
:102CF00096C0EDEEF6E0E4916E2F70E08DEE96E07A
:102D0000E7CFE5E1F7E0E4916E2F70E085E197E031
:102D1000DFCFEBE0F7E0E4916E2F70E08BE097E01F
:102D2000D7CFE3EFF6E0E4916E2F70E083EF96E00B
:102D3000CFCF41155105D1F04130510509F06FC099
:102D400069E070E084EB96E0A8CF4115510599F059
:102D50004130510509F063C060EC70E089E895E00E
:102D60009CCF62E170E08BED96E097CF69E070E078
:102D70008BE996E092CF60E470E089E496E08DCF35
:102D8000803809F04CC08091E800877F8093E8008C
:102D9000809178038093F100D2CE811140C01091D0
:102DA0007B031230E0F58091E800877F8093E80094
:102DB000109378030E944404112311F084E005C0AD
:102DC0008091E30087FDFACF81E08093770342E0B2
:102DD00061EC81E00E94630442E261EC82E00E94C7
:102DE000630442E361EC83E00E94630442E360EC2D
:102DF00084E00E94630413C080917B03813079F4E6
:102E000081E0933009F080E0809376031092E9002E
:102E10008091E800877F8093E8000E9444048091BD
:102E2000E80083FF0AC08091E800877F8093E80074
:102E30008091EB0080628093EB00AA960FB6F89425
:102E4000DEBF0FBECDBFDF91CF911F9108951F92BE
:102E50000F920FB60F9211242F933F934F935F93CE
:102E60006F937F938F939F93AF93BF93CF93DF9392
:102E7000EF93FF93D091E900DF708091EC00C82FB1
:102E8000C17080FDC0E81092E9008091F000877F5A
:102E90008093F00078940E945C141092E900809175
:102EA000F00088608093F000CD2BCF70C093E900D4
:102EB000FF91EF91DF91CF91BF91AF919F918F9152
:102EC0007F916F915F914F913F912F910F900FBE26
:102ED0000F901F901895882309F459C0823871F417
:102EE0000E94DC0881FF53C089E30E94F1070E9421
:102EF000810789E30E94C6070C948107833859F43F
:102F00000E94DC0880FF43C083E50E94F1070E9415
:102F1000810783E5EFCF843859F40E94DC0882FFF3
:102F200036C087E40E94F1070E94810787E4E2CF60
:102F30009CEF980F913AF0F290E2980F983088F455
:102F4000877021E030E0A90102C0440F551F8A9527
:102F5000E2F7CA0180959091ED0289238093ED02FA
:102F6000CBCF9BE5980F933020F490E080E00C9459
:102F7000C60898E5980F973120F490E080E00C9413
:102F8000B008803F20F00E94D7050C94A413089548
:102F9000882309F408C18238B9F40E94DC0881FD55
:102FA00002C189E30E94F1070E9481072FEF81EEA1
:102FB00094E0215080409040E1F700C0000089E398
:102FC0000E94C6070C9481078338A1F40E94DC0894
:102FD00080FDE9C083E50E94F1070E9481072FEF81
:102FE00081EE94E0215080409040E1F700C0000065
:102FF00083E5E6CF8438A1F40E94DC0882FDD3C0CB
:1030000087E40E94F1070E9481072FEF81EE94E090
:10301000215080409040E1F700C0000087E4D0CF0D
:103020009CEF980F913A18F40E94F107CBCF90E2F1
:10303000980F983068F4877021E030E001C0220FCB
:103040008A95EAF78091ED02822B8093ED02BACF48
:103050009BE5980F933070F4853A31F0863A39F059
:1030600083E890E00C94C60881E890E0FBCF82E80A
:1030700090E0F8CF98E5980F973108F08EC0883A25
:1030800009F446C0893A09F446C08A3A09F446C0B0
:103090008B3A09F446C08C3A09F446C08B3B09F4DC
:1030A00046C08C3B09F446C08D3A09F446C0803BCB
:1030B00009F446C08E3A09F446C08F3A09F446C076
:1030C000813B09F446C0823B09F446C0833B09F4C6
:1030D00046C0843B09F446C0853B09F446C0863BA4
:1030E00009F446C0873B09F446C0883B09F446C052
:1030F000893B09F446C08D3B09F446C08E3B09F478
:1031000046C08A3B09F446C090E080E00C94B008C9
:1031100082EE90E0FBCF89EE90E0F8CF8AEE90E06F
:10312000F5CF85EB90E0F2CF86EB90E0EFCF83EB2D
:1031300090E0ECCF84EB90E0E9CF87EB90E0E6CF36
:103140008CEC90E0E3CF8DEC90E0E0CF83E891E071
:10315000DDCF8AE891E0DACF82E991E0D7CF84E948
:1031600091E0D4CF81E292E0D1CF83E292E0CECF62
:1031700084E292E0CBCF85E292E0C8CF86E292E093
:10318000C5CF87E292E0C2CF8FE690E0BFCF80E765
:1031900090E0BCCF8AE292E0B9CF803F20F00E945D
:1031A0009C060C94A4130895CF93C82F0E94C817AF
:1031B000C93349F42FEF87EE93E0215080409040CF
:1031C000E1F700C000008C2FCF910C946B170F9388
:1031D0001F93CF93DF93C62FD42F022FFC01828140
:1031E0008823A1F0609375020E9498139093610266
:1031F00080936002C77081E001C0880FCA95EAF72A
:10320000DF91CF911F910F910C94A6081091750238
:10321000161335C080916002909161020E940407EC
:10322000883C910560F5C0E2CD0F1D17B9F080E232
:10323000810F883040F4177081E001C0880F1A9523
:10324000EAF70E949B08C83048F481E09D2F9770F0
:1032500001C0880F9A95EAF70E94A608802F0E9465
:10326000D418C83098F4D77081E001C0880FDA957F
:10327000EAF7DF91CF911F910F910C949B08C770D3
:1032800081E001C0880FCA95EAF7F3CFDF91CF91B3
:103290001F910F91089560914C03669570E04BE08B
:1032A00050E086E091E00E94392C892B19F481E0EE
:1032B000809344030E94981390933E0380933D03B0
:1032C000089590914C0390FF36C09170811129C0F0
:1032D000926090934C03662351F060914C0370917F
:1032E0004D0380914E0390914F030E94700E6091A8
:1032F0004C03669570E04BE050E086E091E00E9460
:10330000392C892BA9F01092440381E0809340036B
:1033100020E040914F0360914E0380914D030C9447
:103320004E12853210F09864D4CF880F982BD1CFED
:103330000E944B19EACF08951F920F920FB60F9279
:1033400011242F933F934F935F936F937F938F93AA
:103350009F93AF93BF93EF93FF938091E10082FF20
:1033600009C08091E20082FF05C08091E1008B7F5F
:103370008093E1008091DA0080FF24C08091D80022
:1033800080FF20C08091DA008E7F8093DA008091E8
:10339000D90080FFB0C080E189BD82E189BD09B458
:1033A00000FEFDCF81E08093770380914B03811174
:1033B00009C00E94C8030E9495048091E2008460C5
:1033C0008093E2008091E10080FF17C08091E200CD
:1033D00080FF13C08091E2008E7F8093E200809195
:1033E000E20080618093E2008091D8008062809347
:1033F000D80019BC85E0809377038091E10084FFB9
:103400003EC08091E20084FF3AC080E189BD82E144
:1034100089BD89B5982F917080FFFBCF8091D8002E
:103420008F7D8093D8008091E1008F7E8093E100B2
:103430008091E2008F7E8093E2008091E2008160C3
:103440008093E20080917803882309F45AC084E0D5
:10345000809377030E9447140E94DC081092520365
:1034600080915103882349F080914C0381608093BF
:103470004C0360E086950E9461190E944B1980916F
:10348000E10083FF27C08091E20083FF23C0809189
:10349000E100877F8093E10082E0809377031092C0
:1034A00078038091E1008E7F8093E1008091E200BB
:1034B0008E7F8093E2008091E20080618093E20041
:1034C00042E060E080E00E9463048091F000886048
:1034D0008093F000FF91EF91BF91AF919F918F91F9
:1034E0007F916F915F914F913F912F910F900FBE00
:1034F0000F901F90189519BC1092770310924B03F0
:1035000061CF8091E30087FD93E090937703A2CF92
:1035100061E00C946119ECE4F3E0808181608083C8
:1035200086950C94881A80914C038695815009F4F5
:1035300084E261E00C94611980914C0386958F5F61
:10354000853208F081E061E00C94611990914C03A0
:1035500090FF07C09695981720F0961710F40C94DA
:103560009C1A0C94881A4F925F926F927F928F925E
:103570009F92AF92BF92CF92DF92EF92FF920F9302
:103580001F93CF93DF9300D000D00F92CDB7DEB75B
:103590006C01FC0183819481892B39F01081F180C9
:1035A000812F8F218F3F09F0B7C60F900F900F909A
:1035B0000F900F90DF91CF911F910F91FF90EF909F
:1035C000DF90CF90BF90AF909F908F907F906F9043
:1035D0005F904F9008950E94030C082F682F8981F7
:1035E0009A810E944E08E12FF0E026E0F29EE00D65
:1035F000F11D112434E5039FE00DF11D1124EE0FA0
:10360000FF1FEF54FD4F05911491809149038823CA
:1036100099F0F601828119828111F5C082E08A83D6
:10362000F60180818B8381818C838EEF8D8365E0B1
:10363000CE0101960E94BF05F60182810930FDE5A9
:103640001F0709F0E2C08823C9F18091FE0291E0D2
:10365000980F9770887F953008F4892B8093FE022D
:103660008091FE0287702FEF829FC00111249595F3
:1036700087959595879599279093890080938800E1
:1036800090938B0080938A0090938D0080938C00A0
:103690004091FE025091FF0260910003709101037E
:1036A0008FE090E00E94EC2A609145037091460300
:1036B00080914703909148030E94BC0CF6018281DF
:1036C0008111E6C017FF33C1F6018281882309F416
:1036D0004DC08091ED02809374021092ED028091B2
:1036E000FA02813009F4FEC0882309F4F7C0823061
:1036F00009F405C1843009F409C18FE39CE90197FD
:10370000F1F700C000005801E894B7F84CE0E42E4F
:10371000F12C95010E2C02C0369527950A94E2F7FC
:103720002F7087E290E031F0822F90E02A3008F08D
:10373000F2C04D960E94D41894E0E91AF108ECEF1B
:10374000EE16EFEFFE0629F78091FA02813009F4B8
:10375000E8C0882309F4E1C0823009F4DEC0843077
:1037600009F4E3C0809174028093ED02F601228196
:10377000222309F4B9C2109275020230FCE51F073A
:1037800008F4E2C106313CE5130730F0C8018A5F56
:103790009C45079708F0D8C10E945C0E90931103D6
:1037A000809310030F308CE5180709F4AEC108F0C0
:1037B0002FC10830ECE51E0709F491C108F002C1E1
:1037C00004302CE5120709F47EC108F0EAC002308B
:1037D0008CE5180709F473C18091100382600330EF
:1037E0001C4509F401C1609110031091110384E09C
:1037F00090E00E94DA2A612F81E290E00E94DA2AAA
:103800000E944714D2CE81E00ACF0C303DE5130769
:1038100019F160F40B30EDE51E0709F04FCF882356
:1038200009F4C3CE81E00E94881ABFCE0D30FDE5B9
:103830001F0709F10E302DE5120709F03FCF88234D
:1038400009F4B3CE0E948B1A81E00E94881A21E00D
:103850004FEF6FEF8BE10CC0882309F4A6CE0E94D6
:103860008B1A81E00E94881A21E04FEF6FEF8CEAFB
:103870000E944E129ACE882309F497CE0E948B1A8A
:1038800081E00E94881A21E040E86FEF86E5F0CFE2
:10389000033EFCE51F07F1F058F4013E3CE5130739
:1038A000A1F0023E8CE5180709F00CCF81E00AC0B8
:1038B000043E9CE5190781F084E0053EECE51E0717
:1038C00009F000CF8093FA0202C01092FA020E941F
:1038D0006A0EF8CE82E0F6CF83E0F4CF82EE0E944B
:1038E000C8170BCF83E00E94910888E10E94C81797
:1038F00088E10E946B1783E00E948608FECE82EE6C
:103900000E94C81787E50E94D418F7CE86EE0E9461
:10391000D41888E1F8CF06970DCF82EE0E946B177E
:1039200021CF8CE20E94D4181DCF88E2FBCF033F49
:10393000FCE51F0739F1A0F4083D3CE51307F1F061
:10394000093D8CE5180751F1073D9CE5190709F081
:103950000DCF26E241EE61EEC6010E94E71825CEAA
:10396000053FECE51E07B1F088F0063F2CE5120795
:1039700009F0FCCE27E245EE66EEEECF27E245EEFB
:1039800065EEEACF26E241EE60EEE6CF27E245EEB5
:1039900064EEE2CF26E241EE62EEDECF28E241E0C5
:1039A000EFCF8091100380610630ECE51E07E1F057
:1039B00080911003886007301C45B0F0809110039F
:1039C000806212C00B302CE5120709F496C078F41F
:1039D00009308CE5180709F486C0809110038C60CB
:1039E0000A301C4509F0FFCE80931003FCCE809175
:1039F00010038B7F0D30ECE51E07B1F380911003AF
:103A00008D7F0E301C4580F380911003877FECCFB3
:103A10000A3F2CE5120709F45AC048F502318CE53B
:103A2000180709F47AC060F40031ECE51E0709F4C8
:103A300070C0809110038F7B01311C45A9F2D3CE59
:103A400004312CE5120709F476C008F46CC0053186
:103A50001C4509F0C8CE8091100382FB992790F98C
:103A600021E0922790FB82F990FB83F9BDCF0D3FB7
:103A70009CE5190709F445C070F40B3FFCE51F07EE
:103A800051F1809111038E7F0C3F1C4509F0ABCEA4
:103A900080931103A8CE0F3F3CE5130709F447C0FC
:103AA00040F101151D4509F09ECE80911103982F1C
:103AB000909591708E7F892B90FB81F9E9CF809151
:103AC0001003816091CF8091100384608DCF80912D
:103AD00011038160DDCF809111038260D9CF809185
:103AE0001003806481CF0E94471480911003806886
:103AF0007BCF809111038360CBCF809110038E7FA9
:103B000073CF809111038D7FC3CF809110038F7E7F
:103B10006BCF809110038F7D67CF0E9447148091F7
:103B200010038F7761CF80911003837F5DCF8091E9
:103B300011038C7FADCF0E94471490911003892F01
:103B400097FB87F9805850CF9091ED02892F8272B0
:103B5000F801E25CFC45E431F10508F072C0E95976
:103B6000F34D0C94B42A80914C0380FF1BC08E7FD0
:103B700080934C0360914C0370914D0380914E03F0
:103B800090914F030E94700E10924403EFEFF0E704
:103B900022E0E150F0402040E1F700C000000E9428
:103BA000F20F03CD0E948B1A00CD43E95AE16CE974
:103BB0007AE10E94E808F9CC4CE95AE163E97AE13C
:103BC000F8CF44E153E16DE173E1F3CF4DE153E10F
:103BD00064E173E1EECF4CEF52E168E073E1E9CFCD
:103BE00048E053E16CEF72E1E4CF44EE52E160EF64
:103BF00072E1DFCF40EF52E164EE72E1DACF43E9E8
:103C00005EE062E87EE0D5CF42E85EE063E97EE018
:103C1000D0CF65E082E00E94A61AC7CC68E086E0BB
:103C2000FACF6EE089E0F7CF64E18FE0F4CF67E18F
:103C300085E1F1CF88E1F7CD62E289E1ECCF83E263
:103C4000F2CD0E3D3CE5130709F447C008308DE581
:103C5000180709F445C00115ECE51E0709F06DC30E
:103C60000E944714FFEF24E33CE0F1502040304035
:103C7000E1F700C00000F89481E08093E00080E26A
:103C80008093D8001092C9008FE19EE40197F1F76C
:103C900000C000001DBA109268001CBC10BE1FBA04
:103CA00010927A0010926E0010926F0010927100C4
:103CB000109272001092C9001092BC0014B817B88C
:103CC0001AB81DB810BA1092BC0015B818B81BB8B5
:103CD0001EB811BA0C94003F68CC0E94B30E65CC9C
:103CE00081E080934A0361CC06311C4509F43FC052
:103CF000F60100811181222309F443C0C8010E940A
:103D0000030CF82E682FC8010E944E08B8018F2DB1
:103D10000E94D6098C01B82EF601E580E2943FE0BE
:103D2000E322F280F1101092EC028091EA02877097
:103D300079F0FF2069F080E2800F883048F082E05F
:103D40000E9404148091EA028770AA24A39481112E
:103D5000A12C912E92942FE09222FBE0F91508F409
:103D60004AC0E92DF0E0E558F34D0C94B42A809157
:103D70007602811104C089E20E94C607EDC285E384
:103D8000FBCFC8010E942508F82EC0CF212F2F702D
:103D9000E22E107F19F0E29490EFE922FF20C9F0A3
:103DA000EE2069F080E2800F883010F0B1100BC077
:103DB0008091ED02E82AE092ED020E948107802FB7
:103DC0000E94C81718C08091EC02E82AE092EC0229
:103DD000F4CF802F0E946B17EE2069F0E094005E14
:103DE000083010F0B11028C08091ED02E822E09276
:103DF000ED020E948107292D2850330B2430310514
:103E000010F40E94DC08AA2009F4CFCB8091EA02CA
:103E100080FDCBCBF60112828595859585950E9414
:103E20001C14C6010E94B31A8091EA0285958595FB
:103E300085950E94E113B9CB8091EC02E822E092D3
:103E4000EC02D7CF312F3F70832E107F103219F044
:103E5000829480EF8822802FBB2041F091E0B91638
:103E600031F1FF2079F1EE2041F1A9CFFF2091F04F
:103E70009091EE02892F8829E11003C00E94A608C4
:103E8000BACFE1E0EE12FACF981709F4B4CF8093DD
:103E9000EE02B1CFE11006C00E947B07882D0E9480
:103EA0009B08A9CFF1E0EF1609F4A5CFF5CFFF20CD
:103EB00031F021E02E1508F49ECF882DDFCFE110E0
:103EC0009ACFECCFEE2051F3893349F43FEF87EEE0
:103ED00093E0315080409040E1F700C00000802F17
:103EE0000E946B1788CF812F86958695837061F02D
:103EF000813009F080CFC8019370F11002C090E0CA
:103F000080E00E94B00877CFC8019370F11002C022
:103F100090E080E00E94C6086ECFFF2009F1053FC7
:103F200099F0063FB9F0043F49F4809177029091EF
:103F3000780281609093780280937702802F0E94AC
:103F40009C060E94A41357CF80917702909178022B
:103F50008260F0CF80917702909178028460EACFFE
:103F6000053F89F0063FA9F0043F49F480917702AC
:103F7000909178028E7F9093780280937702802FC1
:103F80000E94D705DECF80917702909178028D7FD5
:103F9000F2CF80917702909178028B7FECCF812FC6
:103FA000837009F066C0F11026CF802F8295869528
:103FB0008770880F880F602F6F70462E512C712CE0
:103FC000612C082E04C0440C551C661C771C0A94F6
:103FD000D2F740E050E0BA0104FF0FC04FE050E0DC
:103FE00060E070E004C0440F551F661F771F8A957C
:103FF000D2F74095509560957095812F869586955E
:104000008370823019F1D8F40091EF021091F00220
:104010002091F1023091F202813069F04429552952
:1040200066297729CB01BA01602371238223932368
:104030000E943D14E0CE402A512A622A732ACB0105
:10404000BA016429752986299729F2CF442955296F
:10405000662977290091EF021091F0022091F10278
:104060003091F202CB01BA01602771278227932792
:10407000DFCF8695FF2011F0812F8170882309F40E
:10408000BACE802F829586958770880F880F602F13
:104090006F70462E512C712C612C082E04C0440CDC
:1040A000551C661C771C0A94D2F740E050E0BA0118
:1040B00004FF0FC04FE050E060E070E004C0440F28
:1040C000551F661F771F8A95D2F7409550956095CA
:1040D0007095812F869586958370823019F1D8F47A
:1040E0000091450310914603209147033091480306
:1040F000813069F04429552966297729CB01BA0115
:1041000060237123822393230E94D51374CE402A07
:10411000512A622A732ACB01BA016429752986299A
:104120009729F2CF4429552966297729009145031B
:10413000109146032091470330914803CB01BA0107
:104140006027712782279327DFCF1F70FF2029F078
:10415000812F0E941C14802F91CE802F0E949B08DB
:10416000812F0E94E11347CE802FE2EFBE1609F4A3
:104170004EC0EB1578F0F0EFBF1619F121EFB21633
:1041800009F43DC0FF2009F465C0E11018CE812F6D
:104190008F713AC033EFB31609F43EC094EFB912F1
:1041A000F1CFFF2009F44BC01F71812F0E941C1416
:1041B000F8E01F9FC001112483608093EA02812FE1
:1041C00023C0FF20B9F0E11016CE1F7161E070E04E
:1041D00080E090E004C0660F771F881F991F1A9532
:1041E000D2F7009145031091460320914703309187
:1041F0004803A6CFE1E0EE1508F4FDCDE6CF812F10
:104200008F71FF2009F4ADCF0E941C14F4CD812FD3
:104210008F71FF20C9F3A5CF60E070E0CB01FF20D4
:1042200009F472CF1F7161E070E080E090E004C09B
:10423000660F771F881F991F1A95D2F765CF81E007
:104240000E94041421E02E1508F0D5CD82E00E94D2
:104250000414D1CDE11038CE812F8F7182CFE2EFDF
:10426000BE16D1F1EB1500F1F0EFBF1649F121EFC9
:10427000B216D1F180917902EE2009F441C0882371
:1042800041F080917A0291E0892780937A0210921E
:104290007902802FF11094CD0E946B1786E0F60111
:1042A00011928A95E9F7A7CD34EFB316C1F0B31692
:1042B00088F085EFB812DECFF1109DCD81E007C008
:1042C000FF2009F498CD80917A0291E089278093AC
:1042D0007A0291CD81E0F826F0927A028CCDF1102D
:1042E0008ACD10927A0287CDFF2039F08091790231
:1042F000882349F3109279027ECDEE2021F37BCD05
:10430000882309F478CDF11076CD80917A0291E07E
:10431000892780937A02EECF85E0DE011196019025
:104320000D928A95E1F7F601228189819A81211106
:1043300052C90E942508082F56C906311C4509F0AC
:10434000D7CC9A7A81E009F480E08093760289E202
:10435000911185E30E94F1070E94810726C91F93EE
:10436000CF93DF9380918002807FC1F480917D02A2
:104370008823A1F08091B202C091810260917B02FA
:1043800070917C0240917E0250917F02D62FD723FC
:10439000DA01A095B09516E0C81304C0DF91CF9163
:1043A0001F91089590E04115510511F0DF3F31F460
:1043B00001968770F1CF2A0F3B1F17C0189FF0019D
:1043C000199FF00D1124EE57FD4F21812713F0CFD7
:1043D00020812613EDCF22812111EACF2381348160
:1043E0002417350740F3241B350B283C310500F713
:1043F000209180022F7020612093800226E0289F68
:10440000F001299FF00D1124E957FD4F80818F7035
:10441000806180838BE792E00E94B31ADF91CF9195
:104420001F910C947C08BF92CF92DF92EF92FF9283
:104430000F931F93CF93DF93CDB7DEB761970FB67E
:10444000F894DEBF0FBECDBF8C0185E0F801DE0120
:104450001D9601900D928A95E1F7D8012C91119645
:104460003C9111971296EC90129780917E02909158
:104470007F02009709F463C140917B0250917C0256
:10448000642F65236F3F09F45AC11396CD90DC90D9
:10449000B0907D02BB2009F413C1C816D906C0F143
:1044A000F601E81BF90BCF01FF24F394883C91053A
:1044B00008F0F12C80918002982F907FFF2009F462
:1044C000C1C091117DC0FE2C531327C0421325C0DB
:1044D000E11023C08F708061809380028BE792E0AF
:1044E0000E94B31A80918002D80115968C938F2D6B
:1044F00061960FB6F894DEBF0FBECDBFDF91CF91AE
:104500001F910F91FF90EF90DF90CF90BF90089593
:10451000809590958C0D9D1DC7CFCD2829F0822FB9
:1045200083238F3F09F035C180E0B82FB170DB2EB7
:1045300080FF3CC08091B2024091810256E084131A
:1045400015C02D873E878D859E850E94450C292F9D
:1045500022952F702230F0F0243018F59F70F1F082
:10456000F8019581907FD1F4D12C1EC090E0589F26
:10457000F001599FF00D1124EE57FD4F6181361364
:1045800006C06081261303C06281E6120FC0019647
:104590008770D5CF9F7011F0882331F3805E88300B
:1045A00018F3C8010E94B31AFD2CA1CFEE2009F424
:1045B0009ECF80918002816080938002F12C97CF02
:1045C000531313C0421311C0E1100FC0D801159648
:1045D0008C93C8010E94B31A86E0F801ABE7B2E001
:1045E00001900D928A95E1F782CF2D873E878D85C8
:1045F0009E850E944F0C882309F1EE20F9F08091EE
:104600008002803270F020917B0230917C023887EA
:104610002F831986DB86CA868C87CE0107960E9477
:10462000B31A86E0F801ABE7B2E001900D928A95EB
:10463000E1F70E94AF21FF24F39459CFC8010E94F3
:10464000B31AF9CF91110CC08BE792E00E94B31A14
:1046500086E0EBE7F2E0DF011D928A95E9F747CFAC
:10466000531312C0421310C0E1100EC0F80185832D
:10467000C8010E94B31AEBE7F2E086E0DF011D9269
:104680008A95E9F7FB2C33CF2D873E878D859E8554
:104690000E944F0C882391F2EE2081F280918002DB
:1046A000803208F4BECF20917B0230917C023A83A5
:1046B00029831B82DD82CC828E83CE010196AFCF0F
:1046C000C816D90640F0C81AD90AB8ECCB16D104DE
:1046D00048F0F12CBDCF809590958C0D9D1D883CA8
:1046E0009105B8F7FE2CEE2009F4A8CF531316C09D
:1046F000421314C08091800280FD6ECF982F907F6E
:1047000009F46ACFF8018583903F09F462CF982FAE
:10471000907F905F8F70892B85835BCF2D873E873D
:104720008D859E850E944F0C81117BCF80918002E8
:10473000816080938002C8010E94B31AD8CEEE2017
:1047400009F47CCF2D873E878D859E850E944F0C76
:10475000F82E882309F472CF86E0F801ABE7B2E0C7
:1047600001900D928A95E1F780917B0290917C02F5
:104770000E94450C92959F70963041F480917A0288
:1047800091E0892780937A02909379020E94AF2169
:10479000AECE81E08E25C9CE1F93CF93DF93CDB7E8
:1047A000DEB767970FB6F894DEBF0FBECDBF6D8B37
:1047B0007E8B8F8B8E899F89892BE1F0852F8423B7
:1047C0008F3F09F098C05FEF4FEF14C030917A022D
:1047D000332309F44EC0E42FF0E036E0539FE00DA0
:1047E000F11D1124EE0FFF1FEF5AFE4F4081518142
:1047F000822B8C931A8A198A4B8B5C8B85E0FE0185
:104800007396DE011D9601900D928A95E1F786E080
:10481000FE013D96DE01179601900D928A95E1F713
:10482000CE0107960E941322811112C086E0FE017C
:104830003796DE01119601900D928A95E1F78A85EF
:104840009B85892B29F08F81988589238F3FC9F516
:1048500016E08091B20290918102891320C0679680
:104860000FB6F894DEBF0FBECDBFDF91CF911F9181
:10487000089580958223BDCF96E0929FD001939FAB
:10488000B00D1124AE57BD4FFE01319601900D922F
:104890009A95E1F7809381020E947C08D9CF819F8D
:1048A000C00111248E579D4F0E9413228823B9F214
:1048B0008091B20290E00196877099278093B202AE
:1048C000C8CF2091810230E0C901019687709927F5
:1048D0004091B2024817190679F60E9447141092C7
:1048E00081021092B20286E0EBE7F2E0DF011D9256
:1048F0008A95E9F7ADCF81E090E0042E01C0880FE2
:104900000A94EAF7A52FB0E0AA59BD4F2C913D8932
:1049100031115CCF322F38235BCF8F929F92AF92B1
:10492000BF92CF92DF92EF92FF920F931F93CF939C
:10493000DF938091130190911401892B91F0809164
:104940001F028F5F80931F0281110BC00E947B0F9B
:1049500090E09093140180931301892B11F40E942D
:10496000E20D02E013E07801C0E0912C37E0C32EA5
:10497000CC0E8C2F0E94270F8C2D0E94270F8C2F7E
:104980000E942613D7019D917D01D12C891729F012
:10499000FD0131978083DD24D3948C2D0E94261352
:1049A000F7019681891709F465C0868381E08D2916
:1049B000982A0E94EA0CCF5FC730C1F60E94981374
:1049C0006AEF70E00E948C2A882ED0911B02DD23B2
:1049D00009F4A2C010921B02E091F802F091F902D2
:1049E0007F012EE0E20EF11C40E0CBEF2AEFC22E59
:1049F000D12C51915B3F81F0652F70E0282D392F2C
:104A00008517D0F1261B370B2E313105DCF19F01C4
:104A100021503109D901CC93EE15FF0551F7409390
:104A20001B02911002C0411179C010921A02A0918C
:104A3000F802B091F90220911B02E6E1F3E090E068
:104A40004191E80139918E01431751F04C914B3F50
:104A5000D9F48C93AF0141505109EA01388321E028
:104A60001196D3E0E432FD0759F720931B0290938F
:104A70001A0258C080E09BCFD601A61BB70B2A0FA5
:104A80003B1FC2CF4D2FC8CF91E0EACF9170892B49
:104A900009F459C080911D0290911E0281309847FF
:104AA00080F010924A036091450370914603809113
:104AB0004703909148030E94880C10921E021092A6
:104AC0001D0280911D0290911E02019690931E027C
:104AD00080931D02892DDF91CF911F910F91FF903F
:104AE000EF90DF90CF90BF90AF909F908F90089500
:104AF0000E94820C2EC0892B69F310921E02109224
:104B00001D02609145037091460380914703909187
:104B100048030E94880CDECF911087CF90911A0233
:104B2000911183CF80911D0290911E0220914A0322
:104B3000222309F3009709F0A9CF0E94790C0E9463
:104B4000760C0E94730CC0911C02CC2389F20E9447
:104B5000760C81E0C827C0931C029CCFCDB7DEB78E
:104B6000C955D1090FB6F894DEBF0FBECDBF84B7CB
:104B7000877F84BF0FB6F894A89580916000886104
:104B800080936000109260000FBE80E890E00FB646
:104B9000F89480936100909361000FBE85B78068A0
:104BA00085BF85B7806885BF0E94C8030E949504B1
:104BB0008091E20084608093E20078948091770392
:104BC0008823A1F01091E9001F709091EC00892FCB
:104BD000817090FD80E8182B1092E9008091E80028
:104BE00083FD0E945C141F701093E90082E084BD75
:104BF00093E095BD9AEF97BD80936E000E947B0F66
:104C000090E090931401809313010E94EA0C0E949B
:104C1000F90CA2E0B3E084E293E0E6E1F3E0119264
:104C20001D928E179F07D9F78EE090E00E940E2B01
:104C30008093F8029093F902FC010E962BEF2193DA
:104C4000E817F907E1F790E080E00E94D42A8F3E50
:104C50009E4F11F00E94B30E8CE090E00E94C62A95
:104C600090E0B0E0A0E08093FA029093FB02A09362
:104C7000FC02B093FD0289EA8093800089E0809372
:104C8000810024982C983F988AB18F7C8AB96E98BD
:104C9000479A8BB180638BB9769A8FE090E00E943F
:104CA000CE2A6093FE027093FF02809300039093DC
:104CB000010367704FEF649FB001112475956795EC
:104CC0007595679577277093890060938800709336
:104CD0008B0060938A0070938D0060938C000E941B
:104CE000E20D90E080E00E94D42A8F3E9E4F11F0AA
:104CF0000E94B30E82E090E00E94C62A80932E03A9
:104D00000E945C0E909311038093100383E090E067
:104D10000E94C62A682F70E090E080E00E943D1457
:104D200080911203811136C090E080E00E94D42A65
:104D30008F3E9E4F21F00E94B30E0E94A40E88E089
:104D400090E00E94CE2A60934C0370934D038093B1
:104D50004E0390934F036E7F71F40E94A40E88E07F
:104D600090E00E94CE2A60934C0370934D03809391
:104D70004E0390934F030E94ED08109244038091DC
:104D80004C0380FF04C060E086950E94611981E0B9
:104D9000809312036091450370914603809147030D
:104DA000909148030E94880C85E191E09093140350
:104DB00080931303F1E4EF2EF12CEC0EFD1E22E0A4
:104DC000E20EF11CA9EACA2EA4E0DA2E8091770344
:104DD000853009F4E8C00E948D24EFE2F3E0A6E1FB
:104DE000B3E010E000E0302F8D912191281709F4F5
:104DF00048C190E0BB24B3942827422F4B2109F4EB
:104E00003BC161969FAF619762963FAF62978B21DE
:104E100091E009F490E063969FAF63970E94981326
:104E20008160782F65969FAF8EAF659761964FAD85
:104E3000619762965FAD629763966FAD6397659673
:104E40008FAD65970E94CC23F801E15DFC4F808116
:104E5000B826B08280912B0390912C030E94040706
:104E60009C0190912A03992319F02431310578F09F
:104E700020912603B0902703109128030091290365
:104E8000211126C18B2D812B802B09F053C20E944A
:104E9000DC0890912D03891721F00E94DC08809393
:104EA0002D0380914403882309F441C0809143037A
:104EB000E0914C03E695E81BE0933F03823009F054
:104EC0006BC1F0E0E954FB4FE4910E2F10E0EAE2F1
:104ED000AE2EE2E1BE2E80914003882389F010922D
:104EE00040030E949813980120953095820F931FDC
:104EF00090933E0380933D0310924203109241032E
:104F000080913D0390913E030E9404078017910712
:104F100070F0E0913D03F0913E030E0F1F1F1093C0
:104F20003E0300933D038DE393E0F50109958091E5
:104F30007703843009F04ACF8093E9008091E8003C
:104F400082FF44CF8091E80090E085FF06C00E9478
:104F5000E703882309F479C191E08091E8008B7719
:104F60008093E800992309F431CF8981811189C1A7
:104F700090914A03992309F4A0C110924A0381E059
:104F80008093490322961FAE229723961FAE239744
:104F90008EEF24968FAF249763E0CE018F5B9F4FF7
:104FA0000E94BF0513CF80917703843009F441C07C
:104FB0001092150388E190E020E40FB6F894A895CC
:104FC000809360000FBE2093600010924403809194
:104FD0005203811117C081E08093520380914C03EA
:104FE000982F9170909351038E7F80934C034FEFD5
:104FF00080E792E0415080409040E1F700C000001F
:105000000E94F20F83B7817F846083BF83B7816082
:1050100083BF7894889583B78E7F83BF0FB6F8944B
:10502000A895809160008861809360001092600074
:105030000FBE80917603882309F4C8CE0E947B0FAF
:1050400090E090931401809313010E94EA0C0E9457
:10505000F90CE6E1F3E0119223E0E432F207D9F72C
:105060000E948D24E6E1F3E0819181114DC143E07E
:10507000E432F407C9F7AACE9F5FBB0C963009F063
:10508000BCCE0F5F1F4F0E30110509F0ACCE8FEF75
:1050900066968FAF669767968FAF679768961FAED5
:1050A00068970E9498138160782F6A969FAF8EAFA1
:1050B0006A9766964FAD669767965FAD67976896F5
:1050C0006FAD68976A968FAD6A970E94CC23C2CE67
:1050D0009F3F19F09F5F90932A03121624F40E94B9
:1050E0007806809326038091260387FF05C00E94DF
:1050F00078068195809326031B1424F40E94780679
:10510000809327038091270387FF05C00E947806BC
:10511000819580932703309126033323A1F02091BA
:105120002703222381F045EB3403C0011124992386
:1051300059F19093260345EB240390011124332366
:1051400039F130932703111624F40E9456068093F8
:1051500028038091280387FF05C00E945606819589
:1051600080932803101624F40E9456068093290386
:105170008091290387FF05C00E9456068195809380
:1051800029030E94A41383CE81E080932603D3CF0A
:1051900081E080932703D7CF863059F4F0E0EC54B8
:1051A000FB4FE4910E2F10E07EE3A72E72E1B72EA5
:1051B00092CE893061F4E695F0E0EF54FB4FE49134
:1051C0000E2F10E060EAA62E60E1B62E84CE8F305E
:1051D00061F4E695F0E0E255FB4FE4910E2F10E00C
:1051E0005AECA52E50E1B52E76CE853159F4F0E07B
:1051F000E555FB4FE4910E2F10E049E3A42E41E169
:10520000B42E69CE08EE13E099E8A92E91E1B92EEB
:10521000883109F460CE833241F4F601059114918E
:105220003FECA32E31E1B32E56CE04EF11E027E67A
:10523000A22E20E1B22E843209F44DCE00ED17E00B
:105240008BEBA82E85E0B82E46CE00E410E0CE0110
:1052500001965C018091E80085FD0AC08091E8001C
:105260008B778093E8000E94E703882399F374CE3C
:105270008091F100F50181935F010150110951F70F
:105280006BCE8130D1F422961FAE229784E0239614
:105290008FAF23978CE0E0E2F1E0D70101900D920F
:1052A0008A95E1F78EEF60968FAF60976FE0CE0141
:1052B0008F5B9F4F0E94BF0589CD90914903992331
:1052C000E9F0823009F082CD609145037091460388
:1052D00080914703909148030E942E0722961FAEAB
:1052E000229793E023969FAF239724968FAF24971E
:1052F0008EEF25968FAF259764E04FCE8FEF2296E5
:105300008FAF229761E049CE80E189BD82E189BDFE
:1053100009B400FEFDCF8091D8008F7D8093D80026
:105320008091E00082608093E0008091E00081FD48
:10533000FCCF4CCD9F3F09F0CDCEDECE1F921FB6E5
:105340001F9211248F939F93AF93BF938091150366
:10535000811113C08091F3029091F402A091F502A3
:10536000B091F6024196A11DB11D8093F302909376
:10537000F402A093F502B093F602BF91AF919F9112
:105380008F911F901FBE1F9018951092B9008CE04E
:105390008093B8000895EF92FF920F931F93CF93DD
:1053A000DF93182FEB011092BC0084EA8093BC00BD
:1053B0000E9498137C018091BC0087FF27C08091D8
:1053C000B900887F883029F08091B900887F8031CA
:1053D000D9F51093BB0084E88093BC000E94981319
:1053E0008C018091BC0087FF24C02091B900287FE8
:1053F00090E080E02831B1F081E090E0203411F4B9
:1054000090E080E09195819591090CC0CF3FDC0739
:1054100091F20E9498138E199F098C179D0758F2DC
:105420008EEF9FEFDF91CF911F910F91FF90EF9043
:105430000895CF3FDC07A9F20E949813801B910BBF
:105440008C179D0770F2ECCF8FEF9FEFEBCF0F9390
:105450001F93CF93DF93EB018093BB0084E880938D
:10546000BC000E9498138C018091BC0087FF11C082
:105470002091B900287F81E090E0283211F490E07B
:1054800080E0919581959109DF91CF911F910F91C6
:105490000895CF3FDC0741F30E949813801B910BC6
:1054A0008C179D0708F38EEF9FEFEECF0F931F939E
:1054B000CF93DF93EC0184E88093BC000E949813A3
:1054C0008C018091BC0087FF08C08091BB0090E0F8
:1054D000DF91CF911F910F910895CF3FDC0789F3A2
:1054E0000E949813801B910B8C179D0750F38EEF31
:1054F0009FEFEECF84E98093BC00089587FB082ED0
:10550000062687FD819567FD61950E94BA2A0EF4F3
:10551000919507FC81950895AA1BBB1B51E107C01B
:10552000AA1FBB1FA617B70710F0A61BB70B881F33
:10553000991F5A95A9F780959095BC01CD010895C2
:1055400097FB072E16F4009407D077FD09D00E9430
:105550008C2A07FC05D03EF4909581959F4F0895C5
:10556000709561957F4F0895EE0FFF1F0590F491A0
:10557000E02D0994991B79E004C0991F961708F053
:10558000961B881F7A95C9F780950895F999FECFE3
:1055900092BD81BDF89A992780B50895A6E1B0E043
:1055A00044E050E00C94002BA8E1B0E042E050E071
:1055B0000C94002B262FF999FECF92BD81BDF89A4D
:1055C000019700B4021639F01FBA20BD0FB6F89447
:1055D000FA9AF99A0FBE08950396272F0E94DB2AA4
:1055E0000E94DA2A252F0E94DB2A242F0C94DB2A22
:1055F0000196272F0E94DB2A0C94DA2ADC01CB01CA
:10560000FC01F999FECF06C0F2BDE1BDF89A3196D2
:1056100000B40D9241505040B8F708950F931F9376
:10562000CF93DF938230910510F482E090E0E09117
:105630008303F091840330E020E0B0E0A0E03097F5
:1056400099F42115310509F447C0281B390B243082
:105650003105C0F58A819B816115710571F1FB01EE
:1056600093838283FE0111C04081518102811381A5
:1056700048175907F8F04817590799F4109761F03F
:1056800012960C93129713961C933296CF01DF91CA
:10569000CF911F910F91089500938303109384037A
:1056A000F4CF2115310519F04217530718F49A0168
:1056B000BD01EF01DF01F801C2CF90938403809315
:1056C0008303D0CFFE01E20FF31F81939193225009
:1056D000310939832883DACF209181033091820305
:1056E000232B41F420910201309103013093820376
:1056F0002093810320910001309101012115310592
:1057000041F42DB73EB74091040150910501241B8F
:10571000350B40918103509182034217530708F0E3
:10572000B5CF241B350B2817390708F4AFCFBC01C0
:105730006E5F7F4F2617370708F4A8CF640F751FD9
:105740007093820360938103FA01819391939ECFBA
:10575000CF93DF930097E9F0FC0132971382128216
:10576000C0918303D0918403DE0130E020E02097D4
:10577000A1F420813181820F931F20918103309108
:1057800082032817390709F067C0F0938203E0937A
:105790008103DF91CF910895DA01AE17BF0708F0BA
:1057A00040C012964D915C9113979D014115510592
:1057B00099F7D9011396FC93EE9312974D915D9151
:1057C000A40FB51FEA17FB0779F480819181029637
:1057D000840F951FD90111969C938E93828193819A
:1057E00013969C938E931297B0E0A0E08A819B81E0
:1057F0000097B9F5FE0181919191E80FF91F809111
:105800008103909182038E179F0719F6109761F517
:105810001092840310928303D0938203C093810378
:10582000B8CFB383A28340815181840F951FA817FD
:10583000B90771F44E5F5F4F8D919C911197480F9E
:10584000591F5183408312968D919C91938382833B
:105850002115310509F0ADCFF0938403E093830364
:1058600098CFDE01EC01C2CF13961C921E921297C4
:10587000D3CFFC014150504030F001900616D1F7D3
:105880003197CF010895882799270895F894FFCF7D
:105890005E0C5E0C670C670C690C670C670C670C80
:1058A0005E0C5E0C6E0C670C670C6E0CA30CAF0CE0
:1058B000B40CAD0CB20CB90CB70C7B15A3150F17BB
:1058C000A3150F17D615F7150F17C016CD16B31D54
:1058D000D51DDC1DE11DE61DEB1DF01DF51DFA1D9E
:1058E000FF1D041E121C091E0E1E111E141E171E63
:1058F0001A1E1C1E1F1EC61EC61E221F221F731F1D
:0E5900008D1F2F21FB1ECF1FA520B420B42029
:10590E0000008503200001191A1B1C1D1E1F2021DB
:10591E002201022000BC059C0D710D3B0D000D01F6
:10592E005161617A6D2F445A36674B0000010202B5
:10593E0002020606060909090909090F0F0F0F0FC2
:10594E000F151515181919191919191919191923C6
:10595E0024000D010D020D030D040D050D000C01AB
:10596E000C020C030C040C050C000B010B020B03B8
:10597E000B040B050B000A010A020A030A040A05AE
:10598E000A000901090209030904090509000801B1
:10599E0008020803080408050800070107020703A8
:1059AE00070407050700060106020603060406059E
:1059BE0006000501050205030504050505000401A1
:1059CE000402040304040405040003010302030398
:1059DE00030403050300020102020203020402058E
:1059EE000200010101020103010401050100000191
:0A59FE000002000300040005000091
:00000001FF
