:100000000C9403040C9420040C9420040C942004FD
:100010000C9420040C9420040C9420040C942004D0
:100020000C9420040C9420040C947E1A0C943A1A1C
:100030000C94302D0C9420040C9420040C94200477
:100040000C9420040C9420040C9420040C942004A0
:100050000C9420040C948D160C9420040C94200411
:100060000C9420040C9420040C9420040C94200480
:100070000C9420040C9420040C9420040C94200470
:100080000C9420040C9420040C9420040C94200460
:100090000C9420040C9420040C9420040C94200450
:1000A0000C9420040C9420040C9420040000FF0005
:1000B00000FF0000FF0000FF0000FF0000FF000045
:1000C000FF0000FF0000FF0000FF0000FF0000FF36
:1000D0000000FF0000FF0000FF0000FF0000FF0025
:1000E00000FF0000FF0000FF0000FF0000FF000015
:1000F000FF0000FF0000FF0000FF0000FF0000FF06
:100100000000FF0000FF0000FF0000FF0000FF00F4
:1001100000FF0000FF0000FF0000FF0000FF0000E4
:10012000FF0000FF0000FF0000FF0000FF0000FFD5
:100130000000FF0000FF0000FF0000FF00000000C3
:10014000000000000000000000000000000061E36B
:100150006661E36661E36600000000000061E3663B
:1001600061E36661E36600000000000061E3666130
:10017000E36661E366E9FFFF61E36661E36661E30D
:100180006600000000000000000000000000000009
:10019000000000000000000000000000000000005F
:1001A000000000000000000000000000000000004F
:1001B000000000000000000000000000000000003F
:1001C000000000000000000000000000000000002F
:1001D000000000000000000000000000000000001F
:1001E000000000000000000000000000000000000F
:1001F00000000000000000000000000000000000FF
:1002000000000000000000000000000000000000EE
:1002100000000000000000000000000000000000DE
:1002200000000000000055CB9E20B0FFF3DEEA0086
:10023000000000000020B0FF20B0FF20B0FF000051
:1002400000000000000000000000000000000000AE
:10025000000000000000000000000000000000009E
:10026000000000000000000000000055CB9EF3DEFF
:10027000EA20B0FF0AE1FF00000086FFD520B0FFB2
:1002800020B0FF20B0FF00000000000000000000D0
:10029000000000000000000000000000000000005E
:1002A000000000000000000000000000000000004E
:1002B000000000000000000000000000000000003E
:1002C000000000000000000000000000000000002E
:1002D000000000000000000000000000000000001E
:1002E000000000000000000000000000000101010B
:1002F00001010101010102020202020202020203E3
:1003000003030303030303040404040404040505B2
:100310000505050606060606070707070708080875
:1003200008090909090A0A0A0B0B0B0C0C0C0D0D24
:100330000D0E0E0E0F0F0F101011111112121313BC
:100340001414151516161717181819191A1A1B1B35
:100350001C1D1D1E1E1F2020212222232424252691
:1003600026272829292A2B2C2D2D2E2F30313232C9
:10037000333435363738393A3B3C3D3E3F404142D5
:10038000434445464748494A4C4D4E4F50515354BB
:10039000555658595A5B5D5E5F616264656668696F
:1003A0006B6C6D6F7072737577787A7B7D7E8082EF
:1003B000838587888A8C8E8F91939596989A9C9E38
:1003C000A0A2A3A5A7A9ABADAFB1B3B5B7BABCBE48
:1003D000C0C2C4C6C9CBCDCFD1D4D6D8DBDDDFE215
:1003E000E4E7E9EBEEF0F3F5F8FAFDFF2A002B0065
:1003F0002961E100354100001E00140004411D6127
:1004000050004D001F001A0016001B004F002A006C
:100410002000080007000600E2002C002100150063
:1004200009001900E3004A00220017000A00050035
:1004300000004C00500003510000000F00002C0889
:100440004F000353000000070000010023001C00C0
:100450000B00110000002900240018000D001000FE
:10046000E7004B0025000C000E003600E6002800D7
:10047000260012000F00370051002B002700130048
:100480003343387152004E002D00310034682E7213
:1004900002510000290001000100010001000000DC
:1004A0003A0001000100220201000D5D3B001F0225
:1004B000210223020100C95C3C002F0226022F000A
:1004C0000100CA5C3D0030022702300001000C5DD3
:1004D0003E003102350035020000C35C010001001E
:1004E0000000010000000100010001000000010007
:1004F0000000C25C3F0052005100240200000B5D6E
:100500005300240021001E00270001005400250094
:1005100022001F002700C55C550026002300200094
:100520006300C65C5600570085002E00580001008D
:10053000A900AA00AE00A80001000000010001000F
:1005400001000100010000000100010001000100A4
:10055000010001000100F500F200010001000100AE
:100560000100F000F1000100010001000100F400B1
:10057000F300010001000100010001000100010081
:100580000000010001000100000001000000010066
:100590000100010000000100000001000100010055
:1005A0000100010000000100010001000100010044
:1005B0000100010001000100010001000100B6007E
:1005C00001000100010001000100B700010001006D
:1005D0000100010001000100B000AC00AE00AB0062
:1005E00001000000290039000100010001000000A5
:1005F0003A001E0220022202010001003B001F02FD
:1006000021022302010001003C002F0226022F00DC
:10061000010001003D00300227023000010001000E
:100620003E003102350035020000010001000100EA
:1006300000000100000001000100010000000100B5
:10064000000001003F0057005600010000000100BB
:1006500040002A005000010001000100410052004A
:10066000510001000100010042004C004F00010058
:100670000100010043000100010001000100010030
:1006800044004500010001000100000005010902CD
:10069000A10185020901A10005091901290515001B
:1006A00025019505750181029501750381010501FB
:1006B000093009311581257F9502750881060938B1
:1006C0001581257F950175088106050C0A380215EC
:1006D00081257F950175088106C0C005010980A1AB
:1006E0000185031A81002A83001601002603009564
:1006F0000175108100C0050C0901A10185041A01D2
:10070000002A9C02160100269C02950175108100AA
:10071000C005010906A1018505050719E029E715AE
:100720000025019508750181020507190029EF15BB
:1007300000250195F075018102050819012905952B
:100740000575019102950175039101C00501090626
:10075000A101050719E029E7150025019508750194
:1007600081029501750881010507190029FF15000F
:1007700026FF0095067508810005081901290595D1
:100780000575019102950175039101C009023B00B5
:10079000020100A0FA09040000010301010009217F
:1007A000110100012240000705810308000A090425
:1007B0000100010300000009211101000122C00015
:1007C0000705820320000A1201100100000008ED55
:1007D000FE071301000102030104033000000016AC
:1007E000034500720067006F0064006F007800200E
:1007F0000045005A00000008035A00530041000061
:1008000000040309040011241FBECFEFDAE0DEBFAD
:10081000CDBF13E0A0E0B1E0E4EBF3E602C0059049
:100820000D92A037B107D9F726E0A0E7B3E001C0E9
:100830001D92A531B207E1F70E94EE2A0C94843193
:100840000C940000E8EDF0E080818E7F80831092B0
:10085000E2001092DA001092E100A0EEB0E08C917C
:1008600081608C9380818F77808319BCA7EDB0E085
:100870008C918E7F8C9380818F7E80831092D405A3
:1008800008952091E4003091E50095E6A9012091BA
:10089000EC00822F817020FF06C08091E80080FF6D
:1008A00006C080E008952091E80022FD1AC08091E2
:1008B000FA05882389F0853089F08091EB0085FD69
:1008C0000FC02091E4003091E50042175307F9F280
:1008D0009150E1F684E0089582E0089583E0089560
:1008E00081E00895EF92FF920F931F93CF937C01C5
:1008F0008B010E944104C82F811117C08091E8002C
:1009000085FD0BC08091E8008E778093E8000E94FF
:100910004104882399F3C82F08C0F70181917F0112
:100920008093F1000150110949F78C2FCF911F914D
:100930000F91FF90EF9008958091FC0587FF13C001
:100940008091E80082FF06C08091E8008B77809359
:10095000E80004C08091FA058111F2CF08958091DA
:10096000FA058823D9F38091E80080FFF8CF8091C1
:10097000E8008E77ECCF982F9093E900242F762F04
:1009800050E0891731F07091EC002091ED0050910A
:10099000F00021FD07C09F5F973071F78093E90059
:1009A00081E008953091EB003E7F3093EB00309171
:1009B000ED003D7F3093ED003091EB0031603093DE
:1009C000EB007093EC002093ED005093F000209129
:1009D000EE0027FDE0CF80E00895CF92DF92EF9206
:1009E000FF920F931F93CF93DF93C8EDD0E08881E0
:1009F0008F7E8883E7EDF0E080818160808384E0F2
:100A000082BF81E08093D40588818E7F888302EE47
:100A100010E0F80110821092DA0081EEC82ED12C7D
:100A2000F601108288818F77888388818068888327
:100A300088818F7D888319BC1092FA051092FB057E
:100A40001092F9051092F80590EEE92EF12CF701BD
:100A500080818B7F808388818160888342E060E031
:100A600080E00E94BB04F60180818E7F8083F801C4
:100A7000808181608083808188608083F7018081AC
:100A80008E7F8083888180618883DF91CF911F91E1
:100A90000F91FF90EF90DF90CF900895FC0180912F
:100AA00002069091030686179707A0F0611571055D
:100AB00029F49091E8009E779093E80090E061150A
:100AC000710551F4911108C08091E80082FF34C093
:100AD00080E00895BC01F2CF8091FA058823C1F12E
:100AE0008530C1F18091E80083FD30C08091E8003D
:100AF00082FDEACF8091E80080FFE1CF8091F30092
:100B00002091F200382F6115710519F02830310558
:100B100058F091E02830310509F090E02091E8008C
:100B20002E772093E800CBCF81918093F100615024
:100B300071092F5F3F4FE7CF8091FA05882341F07D
:100B4000853041F08091E80083FFBECF81E00895B9
:100B500082E0089583E008958091FA05843011F4CD
:100B600082E0089581E008958091D70508959091DD
:100B7000BD05803F41F48091BE0587FD1092BE0502
:100B8000992371F00895813F29F48091BE051816CC
:100B9000ACF3F6CF823F81F497FFF2CF1092BD0500
:100BA0008091BE059091BF05892B9091C005892B3E
:100BB00049F71092C1050895833F19F4191674F38B
:100BC000DFCF893F39F48091BF051816CCF610921B
:100BD000BF05D6CF8A3F29F48091BF0587FFD0CFCC
:100BE000F6CF8B3F39F48091C00587FFC9CF1092B3
:100BF000C005C6CF8C3F29F48091C0051816BCF300
:100C0000BFCF843F31F48091BC058E7F8093BC05BB
:100C1000B7CF853F21F48091BC058D7FF7CF863F0C
:100C200021F48091BC058B7FF1CF873F21F4809127
:100C3000BC05877FEBCF883F21F48091BC058F7E78
:100C4000E5CF8D3F31F480918F058E7F80938F05A6
:100C500097CF8E3F21F480918F058D7FF7CF8F3F07
:100C600009F08ECF80918F058B7FF0CF80918F051B
:100C700080FD16C081FD16C082FD16C08091C105A1
:100C80008823A1F0883280F428E0829FC0011124DB
:100C900068E270E00E944B2E862F672B39F0089592
:100CA00082E0089584E0089588E0089581E0089541
:100CB00080918F0580FD16C081FD16C082FD18C091
:100CC0008091C105882391F08C3390F423E2829FB8
:100CD000C00111246CE370E00E944B2E862F672B1D
:100CE00049F0089588E0089581E1089585E0089528
:100CF00083E2089581E00895803F31F40E94580610
:100D000081958093BE050895813F19F40E9458068D
:100D1000F8CF823F31F40E94580681958093BD053B
:100D20000895833F19F40E945806F8CF893F29F4AB
:100D30000E9436068093BF0508958A3F21F40E94E1
:100D400036068195F7CF8B3F31F40E9436068195A8
:100D50008093C00508958C3F19F40E943606F8CFA1
:100D6000843F31F48091BC0581608093BC05089577
:100D7000853F21F48091BC058260F7CF863F21F446
:100D80008091BC058460F1CF873F21F48091BC0540
:100D90008860EBCF883F21F48091BC058061E5CF6E
:100DA0008D3F31F480918F05816080938F05089588
:100DB0008E3F21F480918F058260F7CF8F3FB9F786
:100DC00080918F058460F1CFCF92DF92EF92FF92F6
:100DD0000F931F932FB7F89440918B0550918C057A
:100DE00060918D0570918E052FBF6A017B01EE2405
:100DF000FF248C0130E020E0C016D106E206F306A5
:100E000050F0481B590BCA011F910F91FF90EF90B2
:100E1000DF90CF90089541505109F3CFCF92DF92E8
:100E2000EF92FF926C01EE24FF2420E0C114D10464
:100E3000E104F10419F0C701B60120E1C72ED82E54
:100E4000E92EFF24C114D104E104F10419F0285F54
:100E5000C701B6016B017C0154E0F694E794D79486
:100E6000C7945A95D1F7C114D104E104F10419F0E3
:100E70002C5FC701B6016B017C0142E0F694E79458
:100E8000D794C7944A95D1F7C114D104E104F10471
:100E900019F02E5FC701B6019695879577956795EE
:100EA000672B682B692B09F02F5F822FFF90EF9043
:100EB000DF90CF900895809186058111109286056C
:100EC00008958091850590918405892B90918305E3
:100ED000892B80937003909186059923A1F0892B2B
:100EE0008093700380911501882341F18091A805BA
:100EF00087FF24C08EE1E2E7F3E090E0815000F547
:100F000091110E945B07E091AA05F091AB05309723
:100F1000E1F080911501882359F08091A80587FFA1
:100F200007C0809170038093710385E08093700304
:100F30000280F381E02D80E793E0099486E0DBCF27
:100F400021912223D9F29F5FD9CF08959091150165
:100F50009923D1F09091A80597FF16C0E82FE69548
:100F6000E695E695EE31E0F4F0E0E059FC4F282FED
:100F7000277081E090E001C0880F2A95EAF78095FC
:100F80009281892382830895E2E7F3E091918913A6
:100F900003C0DF0111971C9293E0E837F907B1F71E
:100FA0000895909115019923C1F09091A80597FF9C
:100FB00014C0E82FE695E695E695EE31F8F4F0E0FA
:100FC000E059FC4F877021E030E001C0220F8A9584
:100FD000EAF78281822B82830895A2E7B3E0EFEFE4
:100FE00090E02D91821751F0EF3F19F4211101C0CB
:100FF000E92F9F5F9630A9F7EF3F09F408950E2E71
:10100000000CFF0BE059FC4FE6CFE92FEE0FE90F84
:10101000EE0F8E0F982F977086958695869525E012
:10102000829FF0011124E95BFA4F50E040E080E03C
:10103000219130E0092E02C0369527950A94E2F7F7
:1010400021703327042E01C0220F0A94EAF7822B65
:101050004F5F5F4F4530510559F70895E92FEE0F67
:10106000E90FEE0F8E0F982F977041E001C0440FEB
:101070009A95EAF786958695869595E0899FF00181
:101080001124E95BFA4F30E020E070E05191DF017C
:101090001197CB01022E02C0969587950A94E2F72C
:1010A000817081958527842385278C932F5F3F4FFF
:1010B0002530310559F70895809146059091150521
:1010C000981301C008958F5F8770FACF882341F08D
:1010D0008095909184058923809384050C94610701
:1010E0000895882339F090918405982B9093840576
:1010F0000C9461070895882341F0809590918505AF
:101100008923809385050C9461070895882339F01D
:1011100090918505982B909385050C94610708950F
:101120002091F8043091F9042817390771F0909351
:10113000F9048093F804E091AA05F091AB0530978B
:1011400021F00084F185E02D099408952091F604A2
:101150003091F7042817390771F09093F7048093C2
:10116000F604E091AA05F091AB05309721F00680D6
:10117000F781E02D09940895E091AA05F091AB055F
:10118000309721F00190F081E02D099480E00895DE
:10119000FA01811101C0FB0109948033910538F5F2
:1011A000880F991F880F991FFC01EC5DFE4F52813B
:1011B000338180818370E181A82FB0E070E9879F3F
:1011C000C001112482559C4FE80FF92FF11DB497EF
:1011D0006083FC01E50FF11DB4974083830F911DDF
:1011E000FC01B4972083A455BC4F81E08C930895F3
:1011F000FF920F931F93CF93DF93182F062FF42E98
:10120000D0E0C0E02F2D402F612FCE010E94CD08ED
:101210002196C033D105B1F7DF91CF911F910F9186
:10122000FF90089580910C06837011F410920801CC
:1012300080910C068C7F816080930C0608950C943D
:10124000F8080C94CD080F931F9310E0F801EE0FEF
:10125000FF1FE052FD4F9081905797FD9195000F31
:10126000111FF801EF51FD4F00810052110B2003B7
:10127000F001219FF00D112408E310E0091B110972
:1012800097FD139540039001419F300D1124E20F0B
:10129000F31F9F01220F331F2E0F3F1F37FF02C086
:1012A00021583F4F220F232F221F330B620F1F9114
:1012B0000F9108950F931F93522F10E0F801EE0F36
:1012C000FF1FEF51FD4FA081A052BB0B9D015203A8
:1012D000F001539FF00D1124000F111FD801A052EF
:1012E000BD4F0C910057110B40039001419F300DF1
:1012F00011242E0F3F1F37FF02C0215C3F4F96E0A5
:10130000359527959A95E1F7620F1F910F910895F2
:101310000F931F93522F10E0F801EE0FFF1FEF51B4
:10132000FD4FA081A052BB0B9D015203F001539FC2
:10133000F00D1124000F111FD801A052BD4F0C91C8
:101340000057110B40039001419F300D11242E0FC7
:101350003F1F37FF02C021583F4F220F232F221F6C
:10136000330B620F1F910F910895EF920F93972FF8
:1013700023E0029FB0011124759567956E0D792FBA
:101380000F91EF900895322F50E0FA01EE0FFF1FFA
:10139000EF51FD4F9081905297FD9195440F551F4D
:1013A000FA01E052FD4F2081231B330B290F311D21
:1013B00097FD3A95620F0895E42FF0E0EE0FFF1FBE
:1013C000EF51FD4F6081621B0895E42FF0E0EE0FB6
:1013D000FF1FE052FD4F6081621B0895622F089548
:1013E000E42FF0E0EE0FFF1FE052FD4F408134EE9E
:1013F000439F412D1124E82FF0E050E0445E5F4F01
:10140000DA01A21BB1099D01B7FF03C031952195F7
:10141000310993E0220F331F9A95E1F7AF01421B88
:10142000530B9A0157FD20E0582F259F212D1124A1
:10143000822F0895E42FF0E0EE0FFF1FE052FD4FE2
:10144000408134EE439F412D1124E72FF0E050E01E
:10145000445E5F4FDA01A21BB1099D01B7FF03C0D3
:1014600031952195310993E0220F331F9A95E1F7C9
:10147000AF01421B530B9A0157FD20E0279F212DFE
:101480001124722F0895FC019B01009729F480E03C
:1014900077FF2BC080E80895AC0197FF04C0442774
:1014A0005527481B590BB901640F751F37FD10C034
:1014B000241B350BC901A5E0880F991FAA95E1F7F8
:1014C0000E944B2E80E2861BF7FF0FC08195089586
:1014D000CB0165E0880F991F6A95E1F7BA01621B9D
:1014E000730B0E944B2E80E6EECF0895EF920F9380
:1014F000CF93DF93D72FC82FC9010E19BA010E94CD
:10150000430A602F681B7D2F8C2FDF91CF910F91A5
:10151000EF9008950F93CF93DF93D72FC82FC90172
:10152000BA010E94430A682F600F7D2F8C2FDF9134
:10153000CF910F910895EF920F931F93CF93DF9365
:10154000D62FC72F182FC9010E19010FBA010E94FB
:10155000430A081B202F219F212D1124822F6D2F3C
:101560007C2FDF91CF911F910F91EF900895EF9213
:101570000F931F93CF93DF93D62F172FC82FC90137
:101580000E19070FBA010E94430A702F781B719F32
:10159000712D11246D2F8C2FDF91CF911F910F9101
:1015A000EF9008950F931F93CF93DF93D62FC72FFC
:1015B000182FC901212F201B022FBA010E94430AB4
:1015C000982F990F990F891B800F282F219F212D6C
:1015D0001124822F6D2F7C2FDF91CF911F910F91BE
:1015E00008950F931F93CF93DF93D62F172FC82FF4
:1015F000C901272F201B022FBA010E94430A982FEE
:10160000990F990F782F791B700F719F712D1124ED
:101610006D2F8C2FDF91CF911F910F910895E82F9F
:1016200086FDE0952E2F2F7086FD2F5FE695E695BF
:10163000E695E670F0E0E45EFE4F9181929F902D7A
:10164000212D112492959F702295207F922B20812D
:10165000920F87FD919580E8890F0895AC01823043
:10166000910508F408959FEF413E8EE1580740F43C
:101670009A0195E0369527959A95E1F798E0920FB3
:1016800061E0E62FE90FFF27FF1F9F0135952795A2
:10169000822F229FF001239FF00DF00D11244E1791
:1016A0005F0738F49FEF920F961758F78FEF860F6A
:1016B00008952F3FE9F361E0620FF6CF0F93CF93C8
:1016C000DF93D72FC82F47FD419588E390E0841B17
:1016D000910947FD9395889FB001899F700D700D0A
:1016E0001124229FC001239F900D900D1124860F7D
:1016F000971F0E942E0B982F990F890F682F600F4C
:101700007D2F8C2FDF91CF910F91089530E020E055
:10171000869F212D969F200D311D1124C90108950A
:10172000AF92BF92CF92DF92FF920F931F93CF930E
:10173000DF93362F472FE82FF0E0E451FD4F711172
:101740000DC06491762F862FDF91CF911F910F915D
:10175000FF90DF90CF90BF90AF900895C72FD0E05B
:101760002491F22E022F10E056E0659FC001112453
:10177000EFEFF0E0BF010E94372E832F90E0880F3B
:10178000991F35E5369FD001379FB00D11248A1B74
:101790009B0B982F990F980F6F01CC1ADD0AC09EF2
:1017A000D001C19EB00DD09EB00D11248B2F949FFF
:1017B000A0011124452F55276F01C41AD50AC09ED8
:1017C000A001C19E500DD09E500D11245F01A91A99
:1017D000B108AC9E6001AD9ED00CBC9ED00C112413
:1017E000CD2CDD24EC19FD09E09FE001E19FD00D37
:1017F000F09FD00D1124ED2F62307105A1F048F457
:101800006115710569F06130710589F0EB2F852F45
:1018100007C06430710571F088F066307105B1F76A
:101820006E2F722F91CFE22F2B2F8D2FF9CFE22F1A
:10183000252FF6CFEB2F822F2D2FF2CF2B2F8F2D91
:10184000E52FEECF9F92AF92BF92CF92DF92EF92B1
:10185000FF920F931F93CF93DF936C01809116013A
:10186000C82FCC0FCC0FC80F15E01C0FB12E1133B1
:1018700010F030E3B32E6091100666956695809166
:101880000406909105060E94860BF82E80E48F0DC9
:101890000E940F0B90E8A92EA80E8F2D0E940F0B0F
:1018A00020E8922E980ED0E0CB1580F081E0103326
:1018B00008F080E0DF91CF911F910F91FF90EF90A2
:1018C000DF90CF90BF90AF909F900895FE01E05CB5
:1018D000FC4F8081909117018923A1F060910D0642
:1018E00070910E0680910F06EF2C0C2F292D4A2D9A
:1018F000F60109950E94900B462F282F672FCE01E5
:101900000E9421092196D0CF7F928F929F92AF9211
:10191000BF92CF92DF92EF92FF920F931F93CF93DC
:10192000DF935C0180911601C82FCC0FCC0FC80F3C
:1019300015E01C0FF12E113310F030E3F32E6091FF
:101940001006669580910406909105060E94860B0C
:10195000782ED0E0CF1590F081E0103308F080E0D1
:10196000DF91CF911F910F91FF90EF90DF90CF907B
:10197000BF90AF909F908F907F900895FE01E05CA4
:10198000FC4F8081909117018923C9F1CE01880F06
:10199000991F84579D4FFC01EC5AFF4F2081422F25
:1019A0004057550B6A018B5A9F4FFC018081282FAD
:1019B0002052330B4901449F9001459F300D300D5B
:1019C0001124889CC001899C900D900D1124820FD8
:1019D000931F0E942E0B082F60910D0670910E062A
:1019E00080910F06E72C9401A601F50109950E944C
:1019F000900B462F282F672FCE010E942109219698
:101A0000A9CFCF92DF92EF92FF920F931F93CF93C4
:101A1000DF937C0180911601C82FCC0FCC0FC80F2B
:101A200015E01C0FD12E113310F030E3D32E60914E
:101A30001006669580910406909105060E94860B1B
:101A4000C82ED0E0CD1568F081E0103308F080E0BA
:101A5000DF91CF911F910F91FF90EF90DF90CF908A
:101A60000895FE01E05CFC4F80819091170189236D
:101A700011F1CE01880F991F84579D4FFC01EB5A3D
:101A8000FF4F20812052330B8C5A9F4FFC01408125
:101A90004057550B60910D0670910E0680910F0610
:101AA0000C2DF70109950E94900B462F282F672FC8
:101AB000CE010E9421092196C5CFDF92EF92FF92BD
:101AC0000F931F93CF93DF937C0180911601C82F52
:101AD000CC0FCC0FC80F15E01C0F012F113308F0ED
:101AE00000E36091100666956695809104069091DA
:101AF00005060E94860BD82ED0E0C01760F081E06A
:101B0000103308F080E0DF91CF911F910F91FF908B
:101B1000EF90DF900895FE01E05CFC4F8081909192
:101B20001701892391F060910D0670910E06809146
:101B30000F062D2D4C2FF70109950E94900B462F73
:101B4000282F672FCE010E9421092196D6CF909190
:101B5000A80592FF06C0282F28712830F9F4877F46
:101B6000846093FF06C0282F28712831F1F4877E06
:101B700084612091A90520FF06C0382F38713830C4
:101B8000D9F4877F816021FF06C0282F2871283172
:101B9000D1F4877E816194FD877E0895282F24717A
:101BA0002430F9F68B7F8860DCCF282F2471243114
:101BB00001F78B7E8861DDCF382F3171313019F715
:101BC0008E7F8860E0CF282F2171213121F78E7E12
:101BD0008861E1CFCF93DF93972F70E026E0929F4B
:101BE000600D711D1124FB0134E5839FE00DF11D93
:101BF0001124EE0FFF1FE451FC4FC591D491CE018B
:101C0000C238D105B9F1E8F5C133D10509F499C05D
:101C100050F5C932D10509F48DC0CA32D10509F495
:101C200097C0C11542E5D40708F047C1C11521E5A9
:101C3000D20708F0C2C1C83ED10508F020C1C03E9D
:101C4000D10568F5C83AD10508F089C0C53AD10573
:101C500008F088C1C130D10511F1209709F443C0C3
:101C60002497E8F440C0C533D10509F45CC0C933FA
:101C7000D105B9F62091A805237089F080EE90E097
:101C80000EC0C33ED10591F168F4C03ED105F9F014
:101C9000C23ED10531F62091A80522FD20C0DF917A
:101CA000CF910895C63ED10561F1C73ED10581F1BE
:101CB000C43ED10509F0B5CF2091A90521FFEFCF92
:101CC0008091A80584FD0FC087EE90E0E8CF2091B9
:101CD000A80520FDA3C13091A90530FFE0CF83EE18
:101CE00090E024FFDCCF90E080E0D9CF2091A805E0
:101CF00022FD97C13091A90530FDC0CF24FFCFCF81
:101D0000F2CF2091A80523FFCACF24FDECCFDCCF72
:101D10002091A80523FD88C13091A90531FFEECFA0
:101D200084EE90E0BCCF2091A80525FFB8CF89E2D2
:101D300090E0B5CF2091A80525FFB1CF85E390E0D5
:101D4000AECF2091A80526FFAACF8AE290E0A7CFC8
:101D50002091A80526FFA3CF81E390E0A0CFCF3B41
:101D6000D10508F682EE94E4C83AD10509F497CF7C
:101D700089EE94E4C93AD10509F491CF8AEE94E44E
:101D8000CA3AD10509F48BCF85EB94E4CB3AD1055F
:101D900009F485CF86EB94E4CC3AD10509F47FCFE2
:101DA00083EB94E4CB3BD10509F479CF84EB94E445
:101DB000CC3BD10509F473CF87EB94E4CD3AD10540
:101DC00009F46DCF8CEC94E4C03BD10509F467CFE6
:101DD0008DEC94E4CE3AD10509F461CF83E895E423
:101DE000CF3AD10509F45BCF8AE895E4C13BD10530
:101DF00009F455CF82E995E4C23BD10509F44FCFF0
:101E000084E995E4C33BD10509F449CF81E296E426
:101E1000C43BD10509F443CF83E296E4C53BD10529
:101E200009F43DCF84E296E4C63BD10509F437CFEF
:101E300085E296E4C73BD10509F431CF86E296E40A
:101E4000C83BD10509F42BCF87E296E4C93BD10505
:101E500009F425CF8FE694E4CD3BD10509F41FCFDB
:101E600080E794E4CE3BD10509F419CF80E094E4F7
:101E7000CA3BD10509F013CF8AE296E410CFC11511
:101E800030E2D30760F4C11541E0D40708F007CF72
:101E9000CE019065C03FD10508F001CF24CFC11518
:101EA00080E4D80708F41FCFC11590E5D90708F0E2
:101EB00068C0CE019F70906AF2CEC11526E5D207A8
:101EC00018F5C11535E5D30708F08DC0C11544E5F7
:101ED000D40708F083C09C2F96959695AE01437069
:101EE0005527C115D34508F46DC021E030E002C08C
:101EF000220F331F4A95E2F740E2949FC00111245C
:101F0000822B932B9A68CBCEC1159AE5D90778F42A
:101F1000C11529E5D20708F070C0C11538E5D3070F
:101F200008F4E1CE9C2F8827806F906AB8CEC11547
:101F30004BE5D40708F4D7CEC1158CE5D80708F4D3
:101F400069C0CE0190568115904208F0CCCE8D2FFD
:101F50008F710E94A70D90E0982F882788279F7186
:101F60008C2B49C081E890E4C53AD10509F497CE9D
:101F700082E890E4C63AD10509F491CE83E890E472
:101F80008ECE9E01E4E036952795EA95E1F7237021
:101F90008C2F86958695837030E2839FC001112433
:101FA000922BC37021E030E002C0220F331FCA958C
:101FB000E2F7822B932B9C6872CE9C2F8827816F2F
:101FC000906A6DCE21E030E002C0220F331F4A95A7
:101FD000E2F740E2949FC0011124EBCF9C2F8827A9
:101FE000846F906A5CCE8C2F0E94A70D90E0982F92
:101FF000882788279F71906252CE8C2F8F700E9405
:10200000A70D34E0D695C7953A95E1F7CF709C2F90
:10201000906945CECE019927906641CE89E390E044
:102020003ECE82EE90E03BCE86EE90E038CEBF9280
:10203000CF92DF92EF92FF920F931F93CF93DF9394
:102040008C01C0907E05D0907F05E0908005F090D7
:1020500081058091870590918805A0918905B091AF
:102060008A05C82AD92AEA2AFB2ACFE1D0E0BC2E69
:10207000D701C6010C2E04C0B695A79597958795F4
:102080000A94D2F780FD0EC0219788F7B12C8B2DD2
:10209000DF91CF911F910F91FF90EF90DF90CF9044
:1020A000BF900895B8018C2F0E94EA0D019761F34B
:1020B000EECFCF93DF93EC010E941710BE01DF91AA
:1020C000CF910C94EA0D0E945910292F2F709295F0
:1020D0009F7092509E3078F4E92FF0E0EA57FE4C62
:1020E0000C945F2E803F19F020F4883E20F481E0AC
:1020F0000895843FE1F380E00895883EC0F3813F76
:10210000D1F7F5CF822F86958695869508959F9273
:10211000AF92BF92CF92DF92EF92FF920F931F93F5
:10212000CF93DF9320E9289FE001299FD00D112450
:10213000C455DF4F10E000E0FE01649131967491C8
:1021400031968491962F972B982BC1F420E040E094
:1021500060E0C8010E9421090F5F1F4F23960033E2
:10216000110551F7DF91CF911F910F91FF90EF90E3
:10217000DF90CF90BF90AF909F9008950E94900BFA
:10218000962EB72EA82E60910F0670E090E080E0AA
:102190000E945E2F20E030E04FE753E40E94BD2E06
:1021A0006B017C016A2D70E090E080E00E94602F5E
:1021B000A70196010E94EC2F0E942F2FA62E692DB9
:1021C00070E090E080E00E94602FA70196010E94DD
:1021D000EC2F0E942F2F962E6B2D70E090E080E068
:1021E0000E94602FA70196010E94EC2F0E942F2FC2
:1021F0002A2D492DAECF40E060E080E00E941F090B
:1022000081E08093D505089527982F980895269802
:102210002E98089525982D98089556985E980895BB
:10222000279A2F9A0895269A2E9A0895259A2D9ADC
:102230000895CF92DF92EF92FF92CF936B017C01D2
:102240000E940E07C82F0E940D110E940A110E94C1
:1022500007110E940411C150C73040F4EC2FF0E088
:10226000EC56FE4C0C945F2E0E941611C701B6016D
:10227000CF91FF90EF90DF90CF9008950E941611BC
:102280000E941311F3CF0E9416110E941011EECF7D
:102290000E9416110E941311F8CF84B1807F84B977
:1022A00085B1807F85B98AB1837F8AB98BB1837FFD
:1022B0008BB93E984698089580B38C7080BB81B3EB
:1022C000836F81BB0895CF9384E090E00E94752EC8
:1022D000C82F81E290E00E94752E982F8C2FCF910D
:1022E00008950F931F93CF93DF9300D00F92CDB734
:1022F000DEB78C010E94AC05823011F0843021F5EC
:1023000084E089831B830A8382E08093E9008FEF56
:102310009091E800815095FD06C095ED9A95F1F7F2
:1023200000008111F5CF8091E80085FF0DC050E0DD
:1023300040E063E070E0CE0101960E94720480915B
:10234000E8008E778093E8000F900F900F90DF9158
:10235000CF911F910F910895CF93DF9300D00F92EB
:10236000CDB7DEB72091FA05243031F523E029837B
:10237000805891099B838A8382E08093E9008FEFE4
:102380009091E800815095FD06C095ED9A95F1F782
:1023900000008111F5CF8091E80085FF0DC050E06D
:1023A00040E063E070E0CE0101960E9472048091EB
:1023B000E8008E778093E8000F900F900F90DF91E8
:1023C000CF910895CF93DF93EC010E94AC0582304A
:1023D00011F08430F9F482E08093E9008FEF90915E
:1023E000E800815095FD06C095ED9A95F1F7000043
:1023F0008111F5CF8091E80085FF0CC050E040E0EE
:1024000066E070E0CE010E9472048091E8008E7751
:102410008093E800DF91CF910895CF93DF93EC0193
:102420000E94AC05823011F08430B9F5809115011D
:102430008823B1F18091A80587FF32C060E282E075
:102440008093E9008FEF9091E800815095FD06C0E0
:1024500095ED9A95F1F700008111F5CF8091E80094
:1024600085FF1BC08091150170E050E040E08111B4
:1024700004C050E040E068E070E0CE010E947204C9
:102480008091E8008E778093E80080E2FE01A8ED5D
:10249000B5E001900D928A95E1F7DF91CF91089513
:1024A00068E081E0CDCFEF92FF920F931F93CF931F
:1024B000DF930E940D110E940A110E9407110E94D1
:1024C000041188E8E82EF12C8FEF90E0F70191835A
:1024D00080830AE810E0F80191838083CCE8D0E0A3
:1024E000998388830E941611FFEF20E782E0F15064
:1024F00020408040E1F700C000000E9413119FEFD0
:10250000E0E7F2E09150E040F040E1F700C0000069
:102510000E9410112FEF80E792E021508040904000
:10252000E1F700C000000E940A11EFEFF0E722E09F
:10253000E150F0402040E1F700C000000E94071188
:102540008FEF90E7E2E081509040E040E1F700C07B
:1025500000000E940411809196058770FFEF8F9F05
:10256000C001112495958795959587959927F70131
:1025700091838083F80191838083998388830E946B
:102580000D110E940A110E940711DF91CF911F9136
:102590000F91FF90EF900C940411609192058CE0E4
:1025A00090E00C94992E6FEE7EEF90E080E00E9418
:1025B000B72E60E082E090E00E94992E60E083E018
:1025C00090E00E94992E1092870510928805109233
:1025D000890510928A0560E084E090E00E94992EBF
:1025E00060E081E290E00E94992E60E085E090E05A
:1025F0000E94992E60E086E090E00E94992E6FEF95
:1026000087E090E00E94992E40E050E0BA0188E017
:1026100090E00E94AB2E60E08DE090E00E94992E49
:1026200040E050E0BA0188E190E00E94AB2E60E00B
:1026300087E190E00E94992E40E050E0BA018CE1E1
:1026400090E00E94AB2E60E080E290E00E94992E24
:102650001092960510929705109298051092990580
:1026600084E080618093960540919605509197058E
:1026700060919805709199058FE090E00E94AB2ED3
:1026800040E050E0BA0183E190E00C94AB2E0F9350
:102690001F93CF93DF93082F000FEB0114E21093E9
:1026A0009803E9E9F3E0DE018D91819383E0E93A53
:1026B000F807D1F724E630E041E150E068E973E043
:1026C000802F0E940C2E105F6096143B41F7DF9123
:1026D000CF911F910F9108958091AC03882329F029
:1026E0006EEA73E084E70E9447131092AC03809176
:1026F000AD03882329F06EE374E087E70E94471357
:102700001092AD030895E8E9F3E06083418324E685
:1027100030E042E050E0BF01880F0C940C2E0F9384
:102720001F93CF93DF93082FE62FF0E0EE50FB4F7F
:102730008081882379F082E1689FE0011124C253EF
:10274000DB4F10E04991612F802F0E9483131F5FA0
:102750001231C1F7DF91CF911F910F910895CF935F
:10276000DF93C82F4BE06DEF0E94831340E06AE0D7
:102770008C2F0E9483138FE39CE90197F1F700C02F
:10278000000040E060E08C2F0E94831340E061E095
:102790008C2F0E94831340E066E08C2F0E948313ED
:1027A00040E06DEF8C2F0E948313D0E040E06D2F4E
:1027B0008C2F0E948313DF5FD231C1F740E06D2F71
:1027C0008C2F0E948313DF5FD432C1F740E06D2F5E
:1027D0008C2F0E948313DF5FD43BC1F74BE06DEF7A
:1027E0008C2F0E94831341E06AE08C2F0E94831398
:1027F00040E06DEF8C2FDF91CF910C9483136F929B
:102800007F928F929F92AF92BF92CF92DF92EF9280
:10281000FF920F931F93CF93DF930E94572D84E76E
:102820000E94AF1387E70E94AF1364E2E62E61E0D7
:10283000F62ED12CC12C72E1772EE8E08E2E912C51
:10284000AA24A394B12C66246394F701418150E03B
:10285000CA01849702810452110BC381C452DD0B5B
:10286000F601EE0FFF1FEE0FFF1FEC5DFE4F208104
:10287000237030E0FC0197FD379643E0F595E7952E
:102880004A95E1F7729EA001739E500D11244253A8
:102890005B4FE40FF52FF11DB4010E944B2EA501F3
:1028A00001C0440F8A95EAF78081842B8083F80168
:1028B00017FD379693E0F595E7959A95E1F7729EA7
:1028C000C001739E900D112482539B4FE80FF92F86
:1028D000F11DC801B4010E944B2EA50101C0440F97
:1028E0008A95EAF78081842B8083FE01D7FD379695
:1028F00083E0F595E7958A95E1F7729EC001739E96
:10290000900D112482539B4FE80FF92FF11DCE013A
:10291000B4010E944B2EA50101C0440F8A95EAF72D
:102920008081842B80832E503B4FF9016082FFEF22
:10293000CF1ADF0A84E0E80EF11CE0E3CE16D104E2
:1029400009F083CF60E084E70E948F1361E087E79E
:10295000DF91CF911F910F91FF90EF90DF90CF907B
:10296000BF90AF909F908F907F906F900C948F133B
:1029700045E050E06CE170E08CE096E00C94892E2C
:1029800080910C06982F969596959F5F9F73837004
:10299000953148F4990F990F892B80930C0610926A
:1029A00008010C94B8148460F8CF80910C06845010
:1029B00080930C06982F9C7F21F483708065809310
:1029C0000C06109208010C94B814ECE0F6E081813A
:1029D000885F81830C94B814ECE0F6E08181885024
:1029E00081830C94B814ECE0F6E0228130E1230FEF
:1029F00008F42FEF22830C94B814ECE0F6E0228167
:102A000030E1231B08F420E022830C94B814ECE09E
:102A1000F6E0238130E1230F08F42FEF23830C9499
:102A2000B814ECE0F6E0238130E1231B08F420E049
:102A300023830C94B814ECE0F6E0248130E1230FFA
:102A400008F42FEF24830C94B814ECE0F6E0248112
:102A500030E1231B08F420E024830C94B814ECE04C
:102A6000F6E0880F880F90819370982B90831092D6
:102A700008010C94B81490910C06969596959817A9
:102A800020F0961710F40C94C0140C942F15ECE061
:102A9000F6E08DE280838091190190911A01A09156
:102AA0001B0181839283A3838FE784830C94B814E2
:102AB0000E94FF1390E080E00E94832E8F3E9E4F85
:102AC00021F00E94D3120E94471545E050E06CE1CE
:102AD00070E08CE096E00E94652E80910C068C7F61
:102AE00011F40C944715089580E290E090930A0148
:102AF000809309018091970381110EC00E94572D88
:102B000081E0809397032FEF83ED90E32150804085
:102B10009040E1F700C0000064E670E080E40E94AD
:102B20005D2D90930A0180930901892B09F04EC015
:102B300064E670E080E00E94B92D90930A018093D2
:102B40000901892B09F042C064E670E080E00E9430
:102B5000B92D90930A0180930901892BB9F564E698
:102B600070E08FE30E94B92D90930A0180930901D0
:102B7000892B61F50E94332E64E670E080E40E94A8
:102B80005D2D90930A0180930901892BF9F464E685
:102B900070E08CE00E94B92D90930A0180930901A6
:102BA000892BA1F464E670E080E00E94B92D909337
:102BB0000A0180930901892B49F464E670E08FE3F0
:102BC0000E94B92D90930A01809309010E94332E2F
:102BD000809109010895CF93C82F873070F58091B7
:102BE000090190910A01892B89F564E670E080E47F
:102BF0000E945D2D90930A0180930901892BD1F4E5
:102C000064E670E082E10E94B92D90930A018093FE
:102C10000901892B79F481E090E001C0880FCA9501
:102C2000EAF764E670E080950E94B92D90930A015E
:102C300080930901CF910C94332E8A30B9F040F47F
:102C4000883071F0893079F0209A2898CF910895D2
:102C50008C3091F070F08D30B9F73E9A4698F6CFEF
:102C6000219A2998F3CF229A2A98F0CF239A2B9869
:102C7000EDCF529A5A98EACF539A5B98E7CFCF9309
:102C8000873008F040C08091090190910A01C0E0AE
:102C9000892B71F464E670E080E40E945D2D9093CE
:102CA0000A0180930901892B31F0C0E00E94332E84
:102CB0008C2FCF91089564E670E083E10E94B92DD6
:102CC00090930A0180930901892B79F764E670E0FB
:102CD00081E40E945D2D90930A0180930901892B64
:102CE00021F784E690E00E94E82D97FF05C09093BD
:102CF0000A0180930901D9CFC82FC09510920A010B
:102D000010920901D3CFCFB18FB1869586958C7380
:102D1000C3708C2BC82FC095CBCF78941F921FB651
:102D20001F9211248F939F93AF93BF9380918B0534
:102D300090918C05A0918D05B0918E050196A11DF5
:102D4000B11D80938B0590938C05A0938D05B09356
:102D50008E05BF91AF919F918F911F901FBE1F90C5
:102D600018952FB7F89480918B0590918C05A091C0
:102D70008D05B0918E052FBF0895E091AA05F091C1
:102D8000AB05309749F082E08093BB050480F58164
:102D9000E02D8BEB95E009950E94B1169093C30549
:102DA0008093C205089510928405109283050E94B5
:102DB000610786E0EBEBF5E0DF011D928A95E9F70C
:102DC0001092C10510928F050E94BD1690E080E020
:102DD0000E94A60890E080E00C9490080E941911CF
:102DE00060937E0570937F058093800590938105A5
:102DF0000C94D3160F931F9341E050E060E070E015
:102E000004C0440F551F661F771F8A95D2F7CB0168
:102E1000BA01609570958095909500917E0510910E
:102E20007F052091800530918105602371238223E5
:102E300093231F910F910C94EE169091820580952B
:102E4000892380938205282F277071F4282F082E5C
:102E5000000C330B9217130639F0859585958595EF
:102E60000E94FA161092820508950F931F9341E075
:102E700050E060E070E004C0440F551F661F771FEC
:102E80008A95D2F780917E0590917F05A09180056B
:102E9000B09181058A019B01082B192B2A2B3B2B12
:102EA000C901B8011F910F910C94EE16609387052C
:102EB000709388058093890590938A050C94D316A6
:102EC0001092850580911501E2E7F3E0882359F01F
:102ED0008091A80587FF07C08EE1DF011D928A95CA
:102EE000E9F70C94D31686E0F8CF1F93CF93DF93C6
:102EF000CDB7DEB7AA970FB6F894DEBF0FBECDBF31
:102F00008CEF95E02091F100FC012193CF01F6E0D8
:102F100084309F07B9F78091FD05833009F46FC0B5
:102F2000B8F4813009F446C0823009F4B0C0809111
:102F3000E80083FF87C28091FC059091FD059A30DF
:102F400008F080C2E92FF0E0E556FE4C0C945F2EAD
:102F50008A3009F48BC08B3009F46EC0893039F7A0
:102F60008091FC05813219F780910006909101064D
:102F70000297E8F68091E800877F8093E8008091CF
:102F8000E80082FF37C09091F3008091F200029731
:102F900029F48091F1008B7F813021F48091F10040
:102FA0008093D7058091E8008B778093E8000E949A
:102FB0009C04BDCF8091FC05813A09F0B8CF809187
:102FC000E800877F8093E8008091000690910106D9
:102FD000892B61F460E288ED95E070E00E944E0577
:102FE0008091E8008B778093E800A1CF60E090E0CB
:102FF00080E0F3CF8091FA058111C1CF98CF809105
:10300000FC05813A09F093CF80910006909101066A
:10301000892B09F08CCF8091E800877F8093E800AE
:103020008091E80080FFFCCF809115018093F10032
:103030008091E8008E77B9CF8091FC05813209F04C
:1030400076CF8091000690910106892B09F06FCF11
:103050008091E800877F8093E8000E949C04809123
:10306000FE05809315010E94601761CF8091FC05D9
:10307000813209F05CCF8091E800877F8093E8007F
:103080000E949C048091FF058093D60550CF8091CB
:10309000FC05813A09F04BCF8091E800877F80934F
:1030A000E8008091E80080FFFCCF8091D605BECF7C
:1030B000803899F0823809F0C5C1809100068F7080
:1030C000873008F0BFC18093E9008091EB0085FB59
:1030D000882780F91092E90006C08091F805909148
:1030E000F905911182609091E800977F9093E80034
:1030F0008093F1001092F1008091E8008E779EC1DC
:10310000882309F48CC1823009F09CC18091FE05AE
:1031100081118FC1809100068F702FEF280F26300C
:1031200008F090C18093E9002091EB0020FF81C15D
:10313000933031F48091EB0080628093EB0079C191
:103140009091EB0090619093EB0021E030E001C0A2
:10315000220F8A95EAF72093EA001092EA00809104
:10316000EB008860EACF81116DC11091FE051F77D9
:103170008091E3008078812B8093E3008091E800C8
:10318000877F8093E8000E949C048091E80080FF84
:10319000FCCF8091E30080688093E30082E011110E
:1031A00083E08093FA054EC18058823008F04AC10E
:1031B0008091FE059091FF058C3D23E09207A1F5DB
:1031C00083E08A838AE289834FB7F894DE011396FD
:1031D00020E03EE051E2E32FF0E050935700E4910D
:1031E00020FF03C0E295EF703F5FEF708E2F90E0FD
:1031F000EA30C0F0C7968D939D932F5F243159F725
:103200004FBF8091E800877F8093E8006AE270E01A
:10321000CE0101960E944E058091E8008B77809345
:10322000E80010C1C096E7CF40910006509101061A
:10323000292F33272330310509F445C078F5213093
:10324000310509F47BC08BE390E0ECE8F7E0223035
:10325000310509F0F7C02091E800277F2093E800AE
:1032600020910206309103068217930708F49C010F
:1032700040E02115310509F070C041116EC0809108
:10328000E80082FDC9CF8091FA05882329F28530B4
:1032900019F28091E80083FFF2CFBECF21323105D1
:1032A00009F440C02232310509F0CCC04115510566
:1032B00009F44EC04130510509F0C4C080EC90E0E3
:1032C000ECE8F6E0C8CF992781309105D9F0009756
:1032D00071F082309105F1F0039709F0B3C0E9ED88
:1032E000F7E0E4918E2F90E0E9EDF7E007C0E1E030
:1032F000F8E0E4918E2F90E0E1E0F8E0009709F427
:10330000A1C0A9CFE7EFF7E0E4918E2F90E0E7EFBF
:10331000F7E0F4CFEFEDF7E0E4918E2F90E0EFEDE2
:10332000F7E0ECCF4115510571F04130510509F03E
:1033300089C089E090E0E7EBF7E08DCF82E190E093
:10334000E7ECF7E088CF89E090E0EEE9F7E083CFA3
:1033500080E490E0ECE4F7E07ECF8091FA058823EA
:1033600009F45ACF853009F457CF8091E80083FDE6
:1033700053CF8091E80082FD82CF8091E80080FFEA
:1033800078CF9091F3008091F2002115310519F06A
:103390008830910550F041E0089709F040E08091B5
:1033A000E8008E778093E80064CF44914093F10069
:1033B0003196215031090196E8CF803809F042C09A
:1033C0008091E800877F8093E8008091FB058093DF
:1033D000F10092CE811136C01091FE05123090F5A9
:1033E0008091E800877F8093E8001093FB050E949E
:1033F0009C04112311F084E005C08091E30087FD57
:10340000FACF81E08093FA0542E061EC81E00E940E
:10341000BB0442E261EC82E00E94BB0413C08091D5
:10342000FE05813079F481E0933009F080E08093EB
:10343000F9051092E9008091E800877F8093E80009
:103440000E949C048091E80083FF0AC08091E800FC
:10345000877F8093E8008091EB0080628093EB008F
:10346000AA960FB6F894DEBF0FBECDBFDF91CF9105
:103470001F9108951F920F920FB60F9211242F9350
:103480003F934F935F936F937F938F939F93AF93EC
:10349000BF93CF93DF93EF93FF93D091E900DF7059
:1034A0008091EC00C82FC17080FDC0E81092E90047
:1034B0008091F000877F8093F00078940E947517C8
:1034C0001092E9008091F00088608093F000CD2B8D
:1034D000CF70C093E900FF91EF91DF91CF91BF9141
:1034E000AF919F918F917F916F915F914F913F919C
:1034F0002F910F900FBE0F901F9018951F920F9253
:103500000FB60F9211242F933F934F935F936F93B6
:103510007F938F939F93AF93BF93EF93FF9380918C
:10352000E10082FF09C08091E20082FF05C0809126
:10353000E1008B7F8093E1008091DA0080FF24C05E
:103540008091D80080FF20C08091DA008E7F809328
:10355000DA008091D90080FFA1C080E189BD82E1BD
:1035600089BD09B400FEFDCF81E08093FA0580910A
:10357000D405811109C00E9422040E94ED048091AB
:10358000E20084608093E2008091E10080FF17C038
:103590008091E20080FF13C08091E2008E7F8093D3
:1035A000E2008091E20080618093E2008091D80087
:1035B00080628093D80019BC85E08093FA058091E1
:1035C000E10084FF2FC08091E20084FF2BC080E1E6
:1035D00089BD82E189BD89B5982F917080FFFBCFAD
:1035E0008091D8008F7D8093D8008091E1008F7EFC
:1035F0008093E1008091E2008F7E8093E2008091D1
:10360000E20081608093E2008091FB05882309F449
:103610004BC084E08093FA050E9460170E94BC08AA
:103620001092D5058091E10083FF27C08091E200D0
:1036300083FF23C08091E100877F8093E10082E0D7
:103640008093FA051092FB058091E1008E7F8093B4
:10365000E1008091E2008E7F8093E2008091E200A1
:1036600080618093E20042E060E080E00E94BB0461
:103670008091F00088608093F000FF91EF91BF91FE
:10368000AF919F918F917F916F915F914F913F91FA
:103690002F910F900FBE0F901F90189519BC10928C
:1036A000FA051092D40570CF8091E30087FD93E076
:1036B0009093FA05B1CF882309F459C0823871F488
:1036C0000E94BC0881FF53C089E30E94D1070E9479
:1036D000610789E30E94A6070C946107833859F4B7
:1036E0000E94BC0880FF43C083E50E94D1070E946E
:1036F000610783E5EFCF843859F40E94BC0882FF4C
:1037000036C087E40E94D1070E94610787E4E2CFB8
:103710009CEF980F913AF0F290E2980F983088F46D
:10372000877021E030E0A90102C0440F551F8A953F
:10373000E2F7CA01809590918505892380938505DC
:10374000CBCF9BE5980F933020F490E080E00C9471
:10375000A60898E5980F973120F490E080E00C944B
:103760009008803F20F00E94B7050C94BD16089584
:10377000882309F408C18238B9F40E94BC0881FD8D
:1037800002C189E30E94D1070E9461072FEF81EEF9
:1037900094E0215080409040E1F700C0000089E3B0
:1037A0000E94A6070C9461078338A1F40E94BC080C
:1037B00080FDE9C083E50E94D1070E9461072FEFD9
:1037C00081EE94E0215080409040E1F700C000007D
:1037D00083E5E6CF8438A1F40E94BC0882FDD3C003
:1037E00087E40E94D1070E9461072FEF81EE94E0E9
:1037F000215080409040E1F700C0000087E4D0CF26
:103800009CEF980F913A18F40E94D107CBCF90E229
:10381000980F983068F4877021E030E001C0220FE3
:103820008A95EAF780918505822B80938505BACF2A
:103830009BE5980F933070F4853A31F0863A39F071
:1038400083E890E00C94A60881E890E0FBCF82E842
:1038500090E0F8CF98E5980F973108F08EC0883A3D
:1038600009F446C0893A09F446C08A3A09F446C0C8
:103870008B3A09F446C08C3A09F446C08B3B09F4F4
:1038800046C08C3B09F446C08D3A09F446C0803BE3
:1038900009F446C08E3A09F446C08F3A09F446C08E
:1038A000813B09F446C0823B09F446C0833B09F4DE
:1038B00046C0843B09F446C0853B09F446C0863BBC
:1038C00009F446C0873B09F446C0883B09F446C06A
:1038D000893B09F446C08D3B09F446C08E3B09F490
:1038E00046C08A3B09F446C090E080E00C94900802
:1038F00082EE90E0FBCF89EE90E0F8CF8AEE90E088
:10390000F5CF85EB90E0F2CF86EB90E0EFCF83EB45
:1039100090E0ECCF84EB90E0E9CF87EB90E0E6CF4E
:103920008CEC90E0E3CF8DEC90E0E0CF83E891E089
:10393000DDCF8AE891E0DACF82E991E0D7CF84E960
:1039400091E0D4CF81E292E0D1CF83E292E0CECF7A
:1039500084E292E0CBCF85E292E0C8CF86E292E0AB
:10396000C5CF87E292E0C2CF8FE690E0BFCF80E77D
:1039700090E0BCCF8AE292E0B9CF803F20F00E9475
:103980007C060C94BD160895CF93C82F0E94B81BD7
:10399000C93349F42FEF87EE93E0215080409040E7
:1039A000E1F700C000008C2FCF910C945B1B0F93AC
:1039B0001F93CF93DF93C62FD42F022FFC01828158
:1039C0008823A1F0609309050E94B1169093F50435
:1039D0008093F404C77081E001C0880FCA95EAF7AC
:1039E000DF91CF911F910F910C94860810910905DA
:1039F000161335C08091F4049091F5040E94E406FA
:103A0000883C910560F5C0E2CD0F1D17B9F080E24A
:103A1000810F883040F4177081E001C0880F1A953B
:103A2000EAF70E947B08C83048F481E09D2F977028
:103A300001C0880F9A95EAF70E948608802F0E949D
:103A4000C41CC83098F4D77081E001C0880FDA95A3
:103A5000EAF7DF91CF911F910F910C947B08C7700B
:103A600081E001C0880FCA95EAF7F3CFDF91CF91CB
:103A70001F910F9108954F925F926F927F928F9254
:103A80009F92AF92BF92CF92DF92EF92FF920F93ED
:103A90001F93CF93DF9300D000D00F92CDB7DEB746
:103AA0006C01FC0183819481892B39F01081F180B4
:103AB000812F8F218F3F09F09AC70F900F900F90A1
:103AC0000F900F90DF91CF911F910F91FF90EF908A
:103AD000DF90CF90BF90AF909F908F907F906F902E
:103AE0005F904F9008950E941710082F682F8981CA
:103AF0009A810E942E08E12FF0E026E0F29EE00D70
:103B0000F11D112434E5039FE00DF11D1124EE0F8A
:103B1000FF1FE451FC4F05911491F6018281093099
:103B2000FDE51F0709F43FC00A302DE5120709F42F
:103B30003FC1023C3CE5130709F060C1882309F44A
:103B4000BCCF90911701809196059F3F09F04FC11E
:103B5000109217018F7E8093960540E060E080E030
:103B60000E941F0940919605509197056091980514
:103B7000709199058FE090E00F900F900F900F904B
:103B80000F90DF91CF911F910F91FF90EF90DF90F9
:103B9000CF90BF90AF909F908F907F906F905F90ED
:103BA0004F900C94AB2E8823C9F18091960591E03B
:103BB000980F9770887F953008F4892B809396052D
:103BC000809196058770EFEF8E9FC0011124959527
:103BD000879595958795992790938900809388007C
:103BE00090938B0080938A0090938D0080938C003B
:103BF00040919605509197056091980570919905AF
:103C00008FE090E00E94AB2E60917E0570917F0561
:103C100080918005909181050E941911F6018281A1
:103C2000882389F0033EFCE51F0709F457C108F01B
:103C300041C1013E3CE5130709F449C1023E8CE550
:103C4000180709F449C117FF76C1F601828188235C
:103C500009F44DC080918505809308051092850573
:103C600080919205813009F441C1882309F43AC159
:103C7000823009F448C1843009F44CC18FE39CE9D7
:103C80000197F1F700C000005801E894B7F84CE044
:103C9000E42EF12C95010E2C02C0369527950A943E
:103CA000E2F72F7087E290E031F0822F90E02A3027
:103CB00008F035C14D960E94C41C94E0E91AF10841
:103CC000ECEFEE16EFEFFE0629F7809192058130BA
:103CD00009F42BC1882309F424C1823009F421C1DD
:103CE000843009F426C18091080580938505F6018A
:103CF0002281222309F44FC3109209050230FCE50A
:103D00001F0708F439C206313CE5130730F0C8013B
:103D10008A5F9C45079708F02FC20E946311909319
:103D2000A9058093A8050F308CE5180709F405C292
:103D300008F086C10830ECE51E0709F4E8C108F078
:103D400059C104302CE5120709F4D5C108F041C16E
:103D500002308CE5180709F4CAC18091A805826079
:103D600003301C4509F458C16091A8051091A905BC
:103D700084E090E00E94992E612F81E290E00E9401
:103D8000992E0F900F900F900F900F90DF91CF9181
:103D90001F910F91FF90EF90DF90CF90BF90AF9069
:103DA0009F908F907F906F905F904F900C946017D2
:103DB000882309F433CF90919605892F877F93FF4D
:103DC00088608093960583FF05C040E060E080E056
:103DD0000E941F09409196055091970560919805A2
:103DE000709199058FE090E00E94AB2E17CF9FEF66
:103DF00090931701806180939605B4CE0C30FDE559
:103E00001F0729F10D302DE5120709F446C00B30CC
:103E10003DE5130709F002CF882309F44ECE81E077
:103E20000F900F900F900F900F90DF91CF911F91F7
:103E30000F91FF90EF90DF90CF90BF90AF909F9049
:103E40008F907F906F905F904F900C942F158823E8
:103E500009F433CE81E00E942F1586E580930D068C
:103E60008FEF80930E0680E880930F060F900F90DF
:103E70000F900F900F90DF91CF911F910F91FF90B6
:103E8000EF90DF90CF90BF90AF909F908F907F90FA
:103E90006F905F904F900C94B814882309F40DCE66
:103EA00081E00E942F158BE180930D068FEF8093A8
:103EB0000E06DACF043E9CE5190791F084E0053E3A
:103EC000ECE51E0709F0BFCE8093920502C0109268
:103ED00092050E94CD12B7CE81E0F6CF82E0F4CFFA
:103EE00083E0F2CF82EE0E94B81BC8CE83E00E942E
:103EF000710888E10E94B81B88E10E945B1B83E087
:103F00000E946608BBCE82EE0E94B81B87E50E9425
:103F1000C41CB4CE86EE0E94C41C88E1F8CF06977C
:103F2000CACE82EE0E945B1BDECE8CE20E94C41CD5
:103F3000DACE88E2FBCF033FFCE51F07D9F140F55D
:103F4000083D3CE5130791F1093D8CE51807F1F1B7
:103F5000073D9CE5190709F0CACE26E241EE61EE65
:103F6000C6010F900F900F900F900F90DF91CF919F
:103F70001F910F91FF90EF90DF90CF90BF90AF9087
:103F80009F908F907F906F905F904F900C94D71C74
:103F9000053FECE51E07B1F088F0063F2CE512075F
:103FA00009F0A5CE27E245EE66EEDACF27E245EE30
:103FB00065EED6CF26E241EE60EED2CF27E245EEA7
:103FC00064EECECF26E241EE62EECACF28E241E0B7
:103FD000EFCF8091A80580610630ECE51E07E1F087
:103FE0008091A805886007301C45B0F08091A80535
:103FF000806212C00B302CE5120709F496C078F4E9
:1040000009308CE5180709F486C08091A8058C60FA
:104010000A301C4509F0A8CE8093A805A5CE809152
:10402000A8058B7F0D30ECE51E07B1F38091A80544
:104030008D7F0E301C4580F38091A805877FECCFE3
:104040000A3F2CE5120709F45AC048F502318CE505
:10405000180709F47AC060F40031ECE51E0709F492
:1040600070C08091A8058F7B01311C45A9F27CCEE0
:1040700004312CE5120709F476C008F46CC0053150
:104080001C4509F071CE8091A80582FB992790F913
:1040900021E0922790FB82F990FB83F9BDCF0D3F81
:1040A0009CE5190709F445C070F40B3FFCE51F07B8
:1040B00051F18091A9058E7F0C3F1C4509F054CE2B
:1040C0008093A90551CE0F3F3CE5130709F447C083
:1040D00040F101151D4509F047CE8091A905982FA3
:1040E000909591708E7F892B90FB81F9E9CF80911B
:1040F000A805816091CF8091A80584608DCF8091C3
:10410000A9058160DDCF8091A9058260D9CF80911A
:10411000A805806481CF0E9460178091A8058068FF
:104120007BCF8091A9058360CBCF8091A8058E7F3E
:1041300073CF8091A9058D7FC3CF8091A8058F7E15
:104140006BCF8091A8058F7D67CF0E94601780910B
:10415000A8058F7761CF8091A805837F5DCF80917F
:10416000A9058C7FADCF0E9460179091A805892F7B
:1041700097FB87F9805850CF90918505892F8272DF
:10418000F801E25CFC45E431F10508F081C0EB5533
:10419000FE4C0C945F2E80910C0691E08927809351
:1041A0000C061092080162CE45ED54E160EC74E11A
:1041B0000F900F900F900F900F90DF91CF911F9164
:1041C0000F91FF90EF90DF90CF90BF90AF909F90B6
:1041D0008F907F906F905F904F900C94C80840EC48
:1041E00054E165ED74E1E4CF4CEE54E165EE74E129
:1041F000DFCF45EE54E16CEE74E1DACF4DEF54E1E0
:1042000063EF74E1D5CF43EF54E16DEF74E1D0CFAC
:1042100041E155E167E075E1CBCF47E055E161E170
:1042200075E1C6CF45E255E16BE175E1C1CF4BE1E8
:1042300055E165E275E1BCCF65E082E00F900F903B
:104240000F900F900F90DF91CF911F910F91FF90E2
:10425000EF90DF90CF90BF90AF909F908F907F9026
:104260006F905F904F900C943B1568E086E0E6CF2E
:104270006EE089E0E3CF64E18FE0E0CF67E185E1C4
:10428000DDCF88E1CDCD62E289E1D8CF83E2C8CD30
:104290000115ECE51E0759F10E3DFCE51F0709F479
:1042A00063C006311C4509F07AC09A7A81E009F4AE
:1042B00080E080930A0589E2911185E30E94D1078D
:1042C0000F900F900F900F900F90DF91CF911F9153
:1042D0000F91FF90EF90DF90CF90BF90AF909F90A5
:1042E0008F907F906F905F904F900C9461070E9429
:1042F00060172FEF34E38CE0215030408040E1F72D
:1043000000C00000F89481E08093E00080E2809398
:10431000D8001092C900EFE1FEE43197F1F700C038
:1043200000001DBA109268001CBC10BE1FBA10928B
:104330007A0010926E0010926F001092710010922D
:1043400072001092C9001092BC0014B817B81AB8C5
:104350001DB810BA1092BC0015B818B81BB81EB81A
:1043600011BA0C94003FA9CB0F900F900F900F90B3
:104370000F90DF91CF911F910F91FF90EF90DF9001
:10438000CF90BF90AF909F908F907F906F905F90F5
:104390004F900C94D31206311C4509F43FC0F6012E
:1043A00000811181222309F443C0C8010E94171023
:1043B000F82E682FC8010E942E08B8018F2D0E9488
:1043C000EA0D8C01B82EF601E580E2943FE0E3228D
:1043D000F280F1101092840580918205877079F047
:1043E000FF2069F080E2800F883048F082E00E9470
:1043F0001D17809182058770AA24A3948111A12C96
:10440000912E92942FE09222FBE0F91508F44AC015
:10441000E92DF0E0E754FE4C0C945F2E80910A05E4
:10442000811104C089E20E94A6074ACF85E3FBCF31
:10443000C8010E940508F82EC0CF212F2F70E22E50
:10444000107F19F0E29490EFE922FF20C9F0EE20EE
:1044500069F080E2800F883010F0B1100BC08091BD
:104460008505E82AE09285050E946107802F0E9459
:10447000B81B18C080918405E82AE0928405F4CF27
:10448000802F0E945B1BEE2069F0E094005E0830F4
:1044900010F0B1103CC080918505E822E0928505BE
:1044A0000E946107292D2850330B2430310510F468
:1044B0000E94BC08AA2009F400CB8091820580FDEF
:1044C000FCCAF60112828595859585950E9435175F
:1044D000C6010E943B1D8091820585958595859535
:1044E0000F900F900F900F900F90DF91CF911F9131
:1044F0000F91FF90EF90DF90CF90BF90AF909F9083
:104500008F907F906F905F904F900C94FA168091EF
:104510008405E822E0928405C3CF312F3F70832EBB
:10452000107F103219F0829480EF8822802FBB20F8
:1045300041F091E0B91631F1FF2079F1EE2041F11F
:1045400095CFFF2091F090918605892F8829E11061
:1045500003C00E948608A6CFE1E0EE12FACF8917C9
:1045600009F4A0CF809386059DCFE11006C00E947C
:104570005B07882D0E947B0895CFF1E0EF1609F4C8
:1045800091CFF5CFFF2031F021E02E1508F48ACF2E
:10459000882DDFCFE11086CFECCFEE2051F38933A9
:1045A00049F43FEF87EE93E0315080409040E1F7CF
:1045B00000C00000802F0E945B1B74CF812F869566
:1045C0008695837061F0813009F06CCFC8019370DB
:1045D000F11002C090E080E00E94900863CFC80113
:1045E0009370F11002C090E080E00E94A6085ACFBC
:1045F000FF2009F1053F99F0063FB9F0043F49F467
:1046000080910B0590910C05816090930C0580932F
:104610000B05802F0E947C060E94BD1643CF80911F
:104620000B0590910C058260F0CF80910B05909165
:104630000C058460EACF053F89F0063FA9F0043FEE
:1046400049F480910B0590910C058E7F90930C0599
:1046500080930B05802F0E94B705DECF80910B055C
:1046600090910C058D7FF2CF80910B0590910C05F8
:104670008B7FECCF812F837009F066C0F11012CFD1
:10468000802F829586958770880F880F602F6F70B6
:10469000462E512C712C612C082E04C0440C551C44
:1046A000661C771C0A94D2F740E050E0BA0104FF80
:1046B0000FC04FE050E060E070E004C0440F551FB1
:1046C000661F771F8A95D2F7409550956095709533
:1046D000812F869586958370823019F1D8F40091E8
:1046E0008705109188052091890530918A058130D0
:1046F00069F04429552966297729CB01BA0160233D
:104700007123822393230E945617CCCE402A512A2C
:10471000622A732ACB01BA0164297529862997294F
:10472000F2CF4429552966297729009187051091F0
:1047300088052091890530918A05CB01BA0160274F
:10474000712782279327DFCF8695FF2011F0812FD5
:104750008170882309F4A6CE802F82958695877074
:10476000880F880F602F6F70462E512C712C612C92
:10477000082E04C0440C551C661C771C0A94D2F702
:1047800040E050E0BA0104FF0FC04FE050E060E0AD
:1047900070E004C0440F551F661F771F8A95D2F73B
:1047A0004095509560957095812F8695869583707C
:1047B000823019F1D8F400917E0510917F05209187
:1047C000800530918105813069F044295529662999
:1047D0007729CB01BA0160237123822393230E949E
:1047E000EE1660CE402A512A622A732ACB01BA0102
:1047F0006429752986299729F2CF442955296629E4
:10480000772900917E0510917F05209180053091D8
:104810008105CB01BA016027712782279327DFCF5B
:104820001F70FF2029F0812F0E943517802F91CE15
:10483000802F0E947B08812F0E94FA1633CE802F92
:10484000E2EFBE1609F44EC0EB1578F0F0EFBF169C
:1048500019F121EFB21609F43DC0FF2009F465C03B
:10486000E11004CE812F8F713AC033EFB31609F4F3
:104870003EC094EFB912F1CFFF2009F44BC01F7175
:10488000812F0E943517F8E01F9FC001112483601B
:1048900080938205812F23C0FF20B9F0E11002CE62
:1048A0001F7161E070E080E090E004C0660F771F48
:1048B000881F991F1A95D2F700917E0510917F05E8
:1048C0002091800530918105A6CFE1E0EE1508F436
:1048D000E9CDE6CF812F8F71FF2009F4ADCF0E9483
:1048E0003517E0CD812F8F71FF20C9F3A5CF60E090
:1048F00070E0CB01FF2009F472CF1F7161E070E01E
:1049000080E090E004C0660F771F881F991F1A95FA
:10491000D2F765CF81E00E941D1721E02E1508F027
:10492000C1CD82E00E941D17BDCDE11038CE812F90
:104930008F7182CFE2EFBE16D1F1EB1500F1F0EFEF
:10494000BF1649F121EFB216D1F180910D05EE208D
:1049500009F441C0882341F080910E0591E0892738
:1049600080930E0510920D05802FF11080CD0E94CE
:104970005B1B86E0F60111928A95E9F793CD34EF3F
:10498000B316C1F0B31688F085EFB812DECFF11080
:1049900089CD81E007C0FF2009F484CD80910E0508
:1049A00091E0892780930E057DCD81E0F826F09275
:1049B0000E0578CDF11076CD10920E0573CDFF2047
:1049C00039F080910D05882349F310920D056ACDC9
:1049D000EE2021F367CD882309F464CDF11062CD78
:1049E00080910E0591E0892780930E05EECF85E03A
:1049F000DE01119601900D928A95E1F7F601228170
:104A000089819A8121116FC80E940508082F73C8F7
:104A10001F93CF93DF9380911405807FC1F4809121
:104A200011058823A1F080914605C091150560917C
:104A30000F05709110054091120550911305D62F66
:104A4000D723DA01A095B09516E0C81304C0DF9112
:104A5000CF911F91089590E04115510511F0DF3F6E
:104A600031F401968770F1CF2A0F3B1F17C0189FB2
:104A7000F001199FF00D1124EA5EFA4F21812713EE
:104A8000F0CF20812613EDCF22812111EACF23819F
:104A900034812417350740F3241B350B283C31059E
:104AA00000F7209114052F7020612093140526E053
:104AB000289FF001299FF00D1124E55EFA4F8081B7
:104AC0008F70806180838FE095E00E943B1DDF91B5
:104AD000CF911F910C945C08BF92CF92DF92EF921E
:104AE000FF920F931F93CF93DF93CDB7DEB76197FC
:104AF0000FB6F894DEBF0FBECDBF8C0185E0F80184
:104B0000DE011D9601900D928A95E1F7D8012C9156
:104B100011963C9111971296EC9012978091120584
:104B200090911305009709F463C140910F055091CE
:104B30001005642F65236F3F09F45AC11396CD9079
:104B4000DC90B0901105BB2009F413C1C816D9063A
:104B5000C0F1F601E81BF90BCF01FF24F394883C68
:104B6000910508F0F12C80911405982F907FFF207B
:104B700009F4C1C091117DC0FE2C531327C042130C
:104B800025C0E11023C08F708061809314058FE0F1
:104B900095E00E943B1D80911405D80115968C93D9
:104BA0008F2D61960FB6F894DEBF0FBECDBFDF919B
:104BB000CF911F910F91FF90EF90DF90CF90BF901A
:104BC0000895809590958C0D9D1DC7CFCD2829F017
:104BD000822F83238F3F09F035C180E0B82FB17059
:104BE000DB2E80FF3CC0809146054091150556E0C4
:104BF000841315C02D873E878D859E850E94591090
:104C0000292F22952F702230F0F0243018F59F7054
:104C1000F1F0F8019581907FD1F4D12C1EC090E085
:104C2000589FF001599FF00D1124EA5EFA4F6181FF
:104C3000361306C06081261303C06281E6120FC0DE
:104C400001968770D5CF9F7011F0882331F3805E75
:104C5000883018F3C8010E943B1DFD2CA1CFEE2027
:104C600009F49ECF80911405816080931405F12C86
:104C700097CF531313C0421311C0E1100FC0D801D6
:104C800015968C93C8010E943B1D86E0F801AFE0A9
:104C9000B5E001900D928A95E1F782CF2D873E878E
:104CA0008D859E850E946310882309F1EE20F9F01E
:104CB00080911405803270F020910F05309110051D
:104CC00038872F831986DB86CA868C87CE010796A4
:104CD0000E943B1D86E0F801AFE0B5E001900D9227
:104CE0008A95E1F70E940825FF24F39459CFC80163
:104CF0000E943B1DF9CF91110CC08FE095E00E94FE
:104D00003B1D86E0EFE0F5E0DF011D928A95E9F7B3
:104D100047CF531312C0421310C0E1100EC0F80168
:104D20008583C8010E943B1DEFE0F5E086E0DF01CE
:104D30001D928A95E9F7FB2C33CF2D873E878D8511
:104D40009E850E946310882391F2EE2081F280916B
:104D50001405803208F4BECF20910F053091100564
:104D60003A8329831B82DD82CC828E83CE01019619
:104D7000AFCFC816D90640F0C81AD90AB8ECCB167E
:104D8000D10448F0F12CBDCF809590958C0D9D1DE0
:104D9000883C9105B8F7FE2CEE2009F4A8CF5313F8
:104DA00016C0421314C08091140580FD6ECF982F59
:104DB000907F09F46ACFF8018583903F09F462CFB0
:104DC000982F907F905F8F70892B85835BCF2D8785
:104DD0003E878D859E850E94631081117BCF8091D7
:104DE0001405816080931405C8010E943B1DD8CE34
:104DF000EE2009F47CCF2D873E878D859E850E940D
:104E00006310F82E882309F472CF86E0F801AFE032
:104E1000B5E001900D928A95E1F780910F05909190
:104E200010050E94591092959F70963041F4809120
:104E30000E0591E0892780930E0590930D050E9441
:104E40000825AECE81E08E25C9CE1F93CF93DF9388
:104E5000CDB7DEB767970FB6F894DEBF0FBECDBFF4
:104E60006D8B7E8B8F8B8E899F89892BE1F0852FAF
:104E700084238F3F09F098C05FEF4FEF14C030914B
:104E80000E05332309F44EC0E42FF0E036E0539FC3
:104E9000E00DF11D1124EE0FFF1FEC51FE4F40817C
:104EA0005181822B8C931A8A198A4B8B5C8B85E0FB
:104EB000FE017396DE011D9601900D928A95E1F731
:104EC00086E0FE013D96DE01179601900D928A95CF
:104ED000E1F7CE0107960E946C25811112C086E091
:104EE000FE013796DE01119601900D928A95E1F749
:104EF0008A859B85892B29F08F81988589238F3F0F
:104F0000C9F516E08091460590911505891320C0DA
:104F100067960FB6F894DEBF0FBECDBFDF91CF917D
:104F20001F91089580958223BDCF96E0929FD00176
:104F3000939FB00D1124AA5EBA4FFE0131960190E5
:104F40000D929A95E1F7809315050E945C08D9CFE0
:104F5000819FC00111248A5E9A4F0E946C2588238C
:104F6000B9F28091460590E0019687709927809369
:104F70004605C8CF2091150530E0C901019687701C
:104F80009927409146054817190679F60E9460173F
:104F9000109215051092460586E0EFE0F5E0DF017E
:104FA0001D928A95E9F7ADCF81E090E0042E01C013
:104FB000880F0A94EAF7A52FB0E0A650BB4F2C91BA
:104FC0003D8931115CCF322F38235BCF8F929F9276
:104FD000AF92BF92CF92DF92EF92FF920F931F9307
:104FE000CF93DF938091090190910A01892BA1F061
:104FF000809196038F5F8093960381110DC00E946C
:10500000741590E090930A0180930901892B21F493
:105010000E9458150E945312DAE9ED2ED5E0FD2EBC
:105020006701C0E010E007E00C0F8C2F0E94EB1529
:10503000802F0E94EB158C2F0E943F16F601919154
:105040006F01D0E0891719F031978083D1E0802F6C
:105050000E943F16F6019681891709F463C0868382
:1050600081E08D2B182B0E944D11CF5FC730D9F6F0
:105070000E94B1166AEF70E00E94372EB82FA091FF
:105080009103AA2309F41DC210929103E0919005A7
:10509000F09191054F012EE0820E911C40E00BEF44
:1050A000CAEFCC2ED12C51915B3F81F0652F70E07F
:1050B0002B2F392F8517C0F1261B370B2E313105C9
:1050C000CCF19F0121503109E90108838E169F061A
:1050D00051F740939103111102C04111F4C1109294
:1050E0009003A0919005B091910520919103EDEA74
:1050F000F5E090E04191E70139917E01431741F0DD
:105100004C914B3FC9F48C93EF012197388321E0F8
:105110001196D5E0EB3BFD0769F72093910390933F
:105120009003D5C180E09DCFE601C61BD70B2C0FA5
:105130003D1FC4CF4A2FCACF91E0EACF0197A10902
:10514000B109DEC1840F951FA61FB71F0FC21092B1
:1051500016018092040690920506A0920606B0926F
:10516000070681E080930801F1102AC2809196051C
:1051700083FD26C260917E0570917F058091800538
:10518000909181050E940E07813009F491C1882316
:1051900009F489C1823009F48EC1833009F48EC1CB
:1051A0008091170181110CC240E060E00E941F094C
:1051B00007C280910701081316C090910C069370E6
:1051C0002091060130E081E09217130609F480E097
:1051D000817080931801053110F5E02FF0E0EB535A
:1051E000FE4C0C945F2E81E0F3CF882309F442C07B
:1051F00080911601C82FCC0FCC0FC80FA5E0EA2E66
:10520000EC0EDE2CF0E3FE1510F4F0E3DF2ED0E020
:10521000CD1538F081E0EFE2BE2EBE1458F580E0E7
:1052200029C020E040E060E0CE010E9421092196E3
:10523000EFCF80911601C82FCC0FCC0FC80F75E0AF
:10524000E72EEC0EDE2C20E32E1510F460E3D62EB4
:1052500060910D0670910E0680910F060E94900BD2
:10526000C62EB72EA82ED0E0CD15C0F081E09FE26B
:105270009E15A8F2909116019F5F909316018111DF
:1052800098C182E08093080180911801811191C139
:1052900001118FC183E0809308018BC1FE01E05CA6
:1052A000FC4F808190911701892331F02A2D4C2DDC
:1052B0006B2DCE010E9421092196D6CF8091160137
:1052C000C82FCC0FCC0FC80F55E0E52EEC0ECE2C1E
:1052D000D0E3DE1510F440E3C42EB0900E06A0908B
:1052E0000F062091100630E4D32E3D2D329F312D34
:1052F0001124D32ED0E0CC1508F0B8CFFE01E05C2D
:10530000FC4F8081909117018923B9F0FE01EE0FC7
:10531000FF1FEF51FD4F808182958F7060910D06C8
:105320008D9D600D11247B2D8A2D0E94900B462FA0
:10533000282F672FCE010E9421092196DCCF809172
:105340001601C82FCC0FCC0FC80F95E0E92EEC0E3C
:10535000DE2CD0E3DE1510F480E3D82EC0900D06CD
:10536000D0910E06B0900F06609110066695669576
:10537000669580910406909105060E94860B0E9416
:105380000F0B805887FD8195880F282F3B2D239F79
:10539000212D1124822F6C2D7D2F0E94900BC62E63
:1053A000B72EA82ED0E0CD1508F060CFFE01E05C4E
:1053B000FC4F808190911701892331F02A2D4C2DCB
:1053C0006B2DCE010E9421092196EDCF8AE19AE052
:1053D0000E945D0D4FCF80EF99E0FACF81EF9AE008
:1053E0000E94010D47CF82ED9AE0FACF87EB9AE059
:1053F0000E94840C3FCF8BE99AE0FACF8EEE99E0C1
:10540000E7CF85EE99E0E4CF8CED99E0E1CF83EC36
:1054100099E0DECF85EB99E0EBCF8EE59BE0E0CF26
:105420008AE89AE0DDCF86E79AE0E2CF88E899E063
:105430000E94220C1FCF8AE599E0FACF83E299E01F
:10544000F7CF0093070180910C06837080930601CB
:105450000E946C131FCF4091040650910506609185
:105460000606709107062FB7F89480918B059091EE
:105470008C05A0918D05B0918E052FBF84179507DF
:10548000A607B70760F0841B950BA60BB70B4A97CE
:10549000A105B10508F48DC0109208018AC00197DA
:1054A000A109B109F0CF90E080E00E94871088C088
:1054B00081E090E0FACF82E090E0F7CF83E090E0E7
:1054C000F4CF11110CCE90919003911108CE409120
:1054D00092035091930360919403709195032FB7B9
:1054E000F89480918B0590918C05A0918D05B091D9
:1054F0008E052FBF84179507A607B70708F41ECEA1
:10550000841B950BA60BB70B2FB7F89480908B05D7
:1055100090908C05A0908D05B0908E052FBF809245
:10552000920390929303A0929403B09295034091BA
:1055300008065091090660910A0670910B064F3FCC
:10554000EFEF5E076E077E07C9F0AA27BB276C0145
:105550007D01C094D094E094F094C416D506E6067C
:10556000F70608F0EFCD8FEF9FEFDC018093080680
:1055700090930906A0930A06B0930B06F090D50508
:1055800000E0F11008C080910C06082F037019F09C
:10559000082F0695069580910801813009F409CEFF
:1055A000882309F4D4CD823009F44BCF833009F439
:1055B00052CFF11005C08091D505882309F4D6CDCE
:1055C000812FDF91CF911F910F91FF90EF90DF908E
:1055D000CF90BF90AF909F908F900895CDB7DEB7DA
:1055E0002A970FB6F894DEBF0FBECDBF84B7877F72
:1055F00084BF0FB6F894A89580916000886180936D
:105600006000109260000FBE80E890E00FB6F89442
:1056100080936100909361000FBE85B7806885BF5D
:1056200085B7806885BF0E9422040E94ED048091A6
:10563000E20084608093E20078948091FA058823E8
:10564000A1F01091E9001F709091EC00892F8170FA
:1056500090FD80E8182B1092E9008091E80083FD0E
:105660000E9475171F701093E90082E084BD93E0DB
:1056700095BD9AEF97BD80936E000E94741590E0DF
:1056800090930A01809309010E944D110E945C11C0
:10569000AAE9B5E0EDEAF5E011921D9225E0EB3BB9
:1056A000F207D1F78EE090E00E9459308093900588
:1056B00090939105FC010E962BEF2193E817F907C3
:1056C000E1F790E080E00E94832E8F3E9E4F11F024
:1056D0000E94D3120E9458158CE090E00E94752E13
:1056E00090E0B0E0A0E08093920590939305A093A2
:1056F0009405B093950589EA8093800089E08093B2
:10570000810024982C983F988AB18F7C8AB96E9832
:10571000479A8BB180638BB9769A8FE090E00E94B4
:105720007D2E6093960570939705809398059093CE
:10573000990567708FEF869FB00111247595679565
:1057400075956795772770938900609388007093AB
:105750008B0060938A0070938D0060938C00909111
:10576000960594FF99C0809317010E94531290E010
:1057700080E00E94832E8F3E9E4F11F00E94D31234
:1057800082E090E00E94752E8093C5050E9463110F
:105790009093A9058093A80583E090E00E94752E60
:1057A000682F70E090E080E00E9456170E94120976
:1057B0000E9412090E94B8148BE091E09093AB050F
:1057C0008093AA05DD24D394CC24CA9480E1B82E1A
:1057D00092E1A92E28E1E22EF12C30E4932E809163
:1057E000FA05853009F45BC00E94E627E6ECF5E097
:1057F000ADEAB5E010E000E0302F8D91219128173F
:1058000009F49EC090E0882483942827422F4821E1
:1058100009F491C099833A83882191E009F490E0DA
:105820009B830E94B1168160782F9D838C83498170
:105830005A816B818D810E942527F801EA53FA4F26
:105840008081882680828091C2059091C3050E9444
:10585000E4069C019091C105992319F0243131058A
:1058600078F02091BD058090BE050091BF05109194
:10587000C00521117BC0882D802B812B09F0ECC045
:105880000E94BC089091C405891709F4A8CF0E9412
:10589000BC088093C405A3CF1092170166CF0E9465
:1058A000FB108091FA05843019F11092AC050FB607
:1058B000F894A895E09260000FBE909260000E945C
:1058C000FB1083B7817F846083BF83B7816083BF10
:1058D0007894889583B78E7F83BF0FB6F894A89588
:1058E00080916000886180936000109260000FBE1C
:1058F0008091F905882309F472CF0E94741590E015
:1059000090930A01809309010E944D110E945C113D
:10591000EDEAF5E0119245E0EB3BF407D9F70E9480
:10592000E627EDEAF5E08191811182C085E0EB3B4D
:10593000F807C9F754CF9F5F880C963009F066CFFF
:105940000F5F1F4F0E30110509F056CFCE82CF8268
:1059500018860E94B1168160782F9A8789874E81B8
:105960005F8168858A850E9425276DCF9F3F19F04A
:105970009F5F9093C105121624F40E9458068093ED
:10598000BD058091BD0587FF05C00E945806819521
:105990008093BD05181424F40E9458068093BE0518
:1059A0008091BE0587FF05C00E94580681958093AF
:1059B000BE053091BD053323A1F02091BE05222301
:1059C00081F045EB3403C0011124992359F19093E0
:1059D000BD0545EB240390011124332331F13093AD
:1059E000BE05101624F40E9436068093BF058091F0
:1059F000BF0587FF05C00E94360681958093BF05CD
:105A0000111624F40E9436068093C0058091C005CB
:105A100087FF05C00E94360681958093C0050E94CD
:105A2000BD162ECFD092BD05D4CFD092BE05D9CF12
:105A3000B9BCA9BC09B400FEFDCF8091D8008F7D10
:105A40008093D8008091E00082608093E000809194
:105A5000E00081FDFCCFC3CE9F3F09F089CF9ACFF4
:105A60001F921FB61F9211248F939F93AF93BF93E2
:105A70008091AC05811113C080918B0590918C05AC
:105A8000A0918D05B0918E054196A11DB11D809309
:105A90008B0590938C05A0938D05B0938E05BF91D7
:105AA000AF919F918F911F901FBE1F9018951092DC
:105AB000B9008CE08093B8000895EF92FF920F93A5
:105AC0001F93CF93DF93182FEB011092BC0084EA51
:105AD0008093BC000E94B1167C018091BC0087FFBE
